:020000040800F2
:10000000000001202D160008B9110008BF110008DA
:10001000C5110008CB110008D11100080000000034
:10002000000000000000000000000000D7110008E0
:10003000E311000800000000EF110008FB110008A8
:100040007516000875160008751600087516000864
:100050007516000875160008751600087516000854
:1000600075160008751600080712000875160008B6
:100070007516000875160008751600087516000834
:100080007516000875160008751600087516000824
:100090007516000875160008751600087516000814
:1000A0007516000875160008751600087516000804
:1000B00075160008751600087516000875160008F4
:1000C00075160008751600087516000875160008E4
:1000D00075160008751600087516000875160008D4
:1000E00075160008751600087516000875160008C4
:1000F00075160008751600087516000875160008B4
:1001000075160008751600087516000875160008A3
:100110007516000875160008751600087516000893
:100120007516000875160008751600087516000883
:1001300000000000000000000000000000000000BF
:1001400000000000000000000000000000000000AF
:10015000000000000000000000000000000000009F
:10016000000000000000000000000000000000008F
:10017000000000000000000000000000000000007F
:10018000000000000000000000000000000000006F
:10019000000000000000000000000000000000005F
:1001A000000000000000000000000000000000004F
:1001B000000000000000000000000000000000003F
:1001C000000000000000000000000000000000002F
:1001D000000000000000000000000000000000001F
:0401E0005FF8E0F1F3
:1001E80010B5054C237833B9044B13B10448AFF369
:1001F80000800123237010BDD401002000000000FE
:10020800B076000808B5034B1BB103490348AFF3A8
:10021800008008BD00000000D8010020B07600086A
:10022800034613F8012B002AFBD1181A013870472E
:1002380081F0004102E000BF83F0004330B54FEA8F
:1002480041044FEA430594EA050F08BF90EA020FFC
:100258001FBF54EA000C55EA020C7FEA645C7FEA8F
:10026800655C00F0E2804FEA5454D4EB5555B8BFB2
:100278006D420CDD2C4480EA020281EA030382EA23
:10028800000083EA010180EA020281EA0303362DB5
:1002980088BF30BD11F0004F4FEA01314FF4801C88
:1002A8004CEA113102D0404261EB410113F0004F9A
:1002B8004FEA03334CEA133302D0524263EB430351
:1002C80094EA050F00F0A780A4F10104D5F1200EEF
:1002D8000DDB02FA0EFC22FA05F2801841F100014A
:1002E80003FA0EF2801843FA05F359410EE0A5F11E
:1002F80020050EF1200E012A03FA0EFC28BF4CF04F
:10030800020C43FA05F3C01851EBE37101F0004504
:1003180007D54FF0000EDCF1000C7EEB00006EEB11
:100328000101B1F5801F1BD3B1F5001F0CD349089B
:100338005FEA30004FEA3C0C04F101044FEA4452F2
:1003480012F5800F80F09A80BCF1004F08BF5FEA79
:10035800500C50F1000041EB045141EA050130BD59
:100368005FEA4C0C404141EB0101013C28BFB1F56B
:10037800801FE9D291F0000F04BF01460020B1FAB6
:1003880081F308BF2033A3F10B03B3F120020CDA89
:100398000C3208DD02F1140CC2F10C0201FA0CF067
:1003A80021FA02F10CE002F11402D8BFC2F1200CCC
:1003B80001FA02F120FA0CFCDCBF41EA0C01904082
:1003C800E41AA2BF01EB0451294330BD6FEA0404CB
:1003D8001F3C1CDA0C340EDC04F11404C4F12002B6
:1003E80020FA04F001FA02F340EA030021FA04F3C8
:1003F80045EA030130BDC4F10C04C4F1200220FA1F
:1004080002F001FA04F340EA0300294630BD21FA5C
:1004180004F0294630BD94F0000F83F4801306BF22
:1004280081F480110134013D4EE77FEA645C18BF16
:100438007FEA655C29D094EA050F08BF90EA020FAD
:1004480005D054EA000C04BF1946104630BD91EAA5
:10045800030F1EBF0021002030BD5FEA545C05D1A8
:100468004000494128BF41F0004130BD14F58004E7
:100478003CBF01F5801130BD01F0004545F0FE415B
:1004880041F470014FF0000030BD7FEA645C1ABF90
:10049800194610467FEA655C1CBF0B46024650EAC7
:1004A800013406BF52EA033591EA030F41F40021F3
:1004B80030BD00BF90F0000F04BF0021704730B579
:1004C8004FF4806404F132044FF000054FF000014E
:1004D80050E700BF90F0000F04BF0021704730B50F
:1004E8004FF4806404F1320410F0004548BF4042E4
:1004F8004FF000013EE700BF42004FEAE2014FEA39
:1005080031014FEA02701FBF12F07F4393F07F4F13
:1005180081F06051704732F07F4208BF704793F016
:100528007F4F04BF41F40021704730B54FF4607429
:1005380001F0004521F000411CE700BF50EA01022C
:1005480008BF704730B54FF000050AE050EA0102D5
:1005580008BF704730B511F0004502D5404261EB45
:1005680041014FF4806404F132045FEA915C3FF486
:10057800D8AE4FF003025FEADC0C18BF03325FEA23
:10058800DC0C18BF033202EBDC02C2F1200300FAD4
:1005980003FC20FA02F001FA03FE40EA0E0021FAF9
:1005A80002F11444BDE600BF70B54FF0FF0C4CF4E7
:1005B800E06C1CEA11541DBF1CEA135594EA0C0F99
:1005C80095EA0C0F00F0DEF82C4481EA030621EAD4
:1005D8004C5123EA4C5350EA013518BF52EA03350F
:1005E80041F4801143F4801338D0A0FB02CE4FF0C1
:1005F8000005E1FB02E506F00042E0FB03E54FF0F1
:100608000006E1FB03569CF0000F18BF4EF0010EE8
:10061800A4F1FF04B6F5007F64F5407404D25FEAE4
:100628004E0E6D4146EB060642EAC62141EA555197
:100638004FEAC52040EA5E504FEACE2EB4F1FD0CD9
:1006480088BFBCF5E06F1ED8BEF1004F08BF5FEA57
:10065800500E50F1000041EB045170BD06F0004609
:1006680046EA010140EA020081EA0301B4EB5C04B6
:10067800C2BFD4EB0C0541EA045170BD41F48011AE
:100688004FF0000E013C00F3AB8014F1360FDEBFD3
:10069800002001F0004170BDC4F10004203C35DAAF
:1006A8000C341BDC04F11404C4F1200500FA05F332
:1006B80020FA04F001FA05F240EA020001F00042D3
:1006C80021F0004110EBD37021FA04F642EB060149
:1006D8005EEA430E08BF20EAD37070BDC4F10C0473
:1006E800C4F1200500FA04F320FA05F001FA04F237
:1006F80040EA020001F0004110EBD37041F1000123
:100708005EEA430E08BF20EAD37070BDC4F120052D
:1007180000FA05F24EEA020E20FA04F301FA05F295
:1007280043EA020321FA04F001F0004121FA04F23D
:1007380020EA020000EBD3705EEA430E08BF20EA0D
:10074800D37070BD94F0000F0FD101F00046400047
:1007580041EB010111F4801F08BF013CF7D041EAC9
:10076800060195F0000F18BF704703F000465200CD
:1007780043EB030313F4801F08BF013DF7D043EA9E
:100788000603704794EA0C0F0CEA135518BF95EA54
:100798000C0F0CD050EA410618BF52EA4306D1D1DB
:1007A80081EA030101F000414FF0000070BD50EAFA
:1007B800410606BF1046194652EA430619D094EA84
:1007C8000C0F02D150EA013613D195EA0C0F05D16E
:1007D80052EA03361CBF104619460AD181EA0301C2
:1007E80001F0004141F0FE4141F470014FF000007A
:1007F80070BD41F0FE4141F4780170BD70B54FF015
:10080800FF0C4CF4E06C1CEA11541DBF1CEA135594
:1008180094EA0C0F95EA0C0F00F0A7F8A4EB050476
:1008280081EA030E52EA03354FEA013100F088806D
:100838004FEA03334FF0805545EA131343EA126336
:100848004FEA022245EA111545EA10654FEA0026EB
:100858000EF000419D4208BF964244F1FD0404F5A4
:10086800407402D25B084FEA3202B61A65EB030500
:100878005B084FEA32024FF480104FF4002CB6EBBD
:10088800020E75EB030E22BFB61A754640EA0C003D
:100898005B084FEA3202B6EB020E75EB030E22BF7D
:1008A800B61A754640EA5C005B084FEA3202B6EBBE
:1008B800020E75EB030E22BFB61A754640EA9C007D
:1008C8005B084FEA3202B6EB020E75EB030E22BF4D
:1008D800B61A754640EADC0055EA060E18D04FEA0B
:1008E800051545EA16754FEA06164FEAC30343EAAB
:1008F80052734FEAC2025FEA1C1CC0D111F4801F78
:100908000BD141EA00014FF000004FF0004CB6E770
:1009180011F4801F04BF01430020B4F1FD0C88BF0F
:10092800BCF5E06F3FF6AFAEB5EB030C04BFB6EB1A
:10093800020C5FEA500C50F1000041EB045170BD0D
:100948000EF0004E4EEA113114EB5C04C2BFD4EB3A
:100958000C0541EA045170BD41F480114FF0000EBE
:10096800013C90E645EA060E8DE60CEA135594EA3A
:100978000C0F08BF95EA0C0F3FF43BAF94EA0C0F3D
:100988000AD150EA01347FF434AF95EA0C0F7FF4B2
:1009980025AF104619462CE795EA0C0F06D152EA06
:1009A80003353FF4FDAE1046194622E750EA4106EA
:1009B80018BF52EA43067FF4C5AE50EA41047FF4FB
:1009C8000DAF52EA43057FF4EBAE12E74FF0FF3C60
:1009D80006E000BF4FF0010C02E000BF4FF0010C31
:1009E8004DF804CD4FEA410C7FEA6C5C4FEA430CAA
:1009F80018BF7FEA6C5C1BD001B050EA410C0CBFF9
:100A080052EA430C91EA030F02BF90EA020F00205A
:100A1800704710F1000F91EA030F58BF994208BFC1
:100A280090422CBFD8176FEAE37040F0010070477E
:100A38004FEA410C7FEA6C5C02D150EA013C07D1D5
:100A48004FEA430C7FEA6C5CD6D152EA033CD3D020
:100A58005DF8040B704700BF8446104662468C461A
:100A68001946634600E000BF01B5FFF7B7FF00284D
:100A780048BF10F1000F01BD4DF808EDFFF7F4FF76
:100A88000CBF012000205DF808FB00BF4DF808ED01
:100A9800FFF7EAFF34BF012000205DF808FB00BF24
:100AA8004DF808EDFFF7E0FF94BF012000205DF846
:100AB80008FB00BF4DF808EDFFF7CEFF94BF0120FB
:100AC80000205DF808FB00BF4DF808EDFFF7C4FFF4
:100AD80034BF012000205DF808FB00BF4FEA410C3D
:100AE8007FEA6C5C02D150EA013C0AD14FEA430C20
:100AF8007FEA6C5C02D152EA033C02D14FF000005D
:100B080070474FF0010070474FEA410212F500129A
:100B180015D211D56FF47873B3EB625212D94FEA3C
:100B2800C12343F0004343EA505311F0004F23FA26
:100B380002F018BF404270474FF00000704750EA7B
:100B4800013005D111F0004008BF6FF00040704738
:100B58004FF00000704700BF80B58AB000AF07F1C2
:100B6800180300221A605A609A60DA60434B9B6946
:100B7800424A43F040039361404B9B6903F04003B2
:100B88007B617B693D4B9B693C4A43F01003936151
:100B98003A4B9B6903F010033B613B69374B9B69F8
:100BA800364A43F080039361344B9B6903F080031A
:100BB800FB60FB68314B9B69304A43F00403936147
:100BC8002E4B9B6903F00403BB60BB682B4B9B69EE
:100BD8002A4A43F008039361284B9B6903F00803F2
:100BE8007B607B6801223C21254801F032FB012211
:100BF8002021244801F02DFB2423BB610123FB6144
:100C080000233B6202237B6207F1180319461C4844
:100C180001F074F91823BB610123FB6100233B62D7
:100C280003237B6207F118031946154801F066F99A
:100C38001E23BB61144BFB6101233B6207F11803C0
:100C48001946124801F05AF92023BB610123FB61C0
:100C580000233B6202237B6207F118031946094807
:100C680001F04CF9002202210A2001F010F90A20B3
:100C780001F029F900BF2837BD4680BD00100240A9
:100C880000180140000C014000002110001C014028
:100C980080B582B000AF0346FB80FB88022B1CD1D5
:100CA8000A2000F0F9FF00BF02212F4801F0BAFA2C
:100CB8000346002BF8D02D4B1B780133DAB22B4BAF
:100CC8001A702A4B1B78032B02D9284B00221A7062
:100CD80000222021264801F0BCFAFB88042B12D1FF
:100CE8000A2000F0D9FF00BF04211F4801F09AFA3A
:100CF8000346002BF8D01F4B01221A700022202136
:100D08001B4801F0A6FAFB88082B12D10A2000F034
:100D1800C3FF00BF0821144801F084FA0346002BE2
:100D2800F8D0154B01221A7001222021104801F039
:100D380090FAFB88102B12D10A2000F0ADFF00BFFB
:100D48001021094801F06EFA0346002BF8D00B4B2E
:100D580001221A7001222021054801F07AFA00BF09
:100D68000837BD4680BD00BF001C0140F0010020CF
:100D7800000C0140F1010020F2010020F3010020E5
:100D8800F0B593B004AF4B4A07F10C031268114653
:100D980019800233120C1A7000F01CFF00F098F84A
:100DA800FFF7DAFE00F0F8F800F05CF900F0F4FA6A
:100DB80000F0B0FB00F03EFE00230093F023F02289
:100DC8000021002000F053FC07F108030022194617
:100DD800394802F03DF93B1D00221946364802F019
:100DE800C5FA00222021354801F033FA4FF49670F5
:100DF80000F052FF01222021304801F02AFA304841
:100E080004F000FB07F10803002219462A4802F003
:100E18001FF93B1D00221946274802F0A7FAFB7963
:100E280003F5FA627B791E46BB79397A787A0446EB
:100E3800B87A054607F124000395029401910093BE
:100E48003346204904F0E6FA07F12402002302930E
:100E580018230193002300934FF6FF730A210520FE
:100E680000F032FD0023029318230193002300931E
:100E78004FF6FF73144A3221052000F025FD3B7B15
:100E88001A467B7B1946BB7B07F1100000930B4683
:100E98000E4904F0BFFA07F1100200230293182349
:100EA8000193002300934FF6FF7332216E2000F068
:100EB8000BFDA7E720770008F4010020000C014093
:100EC800C8760008EC760008087700081477000850
:100ED80080B596B000AF07F13003282200211846EC
:100EE80004F090FB07F11C0300221A605A609A6014
:100EF800DA601A613B1D00221A605A609A60DA6053
:100F08001A615A6109233B634FF480337B630023E2
:100F1800BB6301233B640123BB640223FB644FF4DE
:100F280080333B654FF4E0137B6507F130031846C7
:100F380001F0CCF90346002B01D000F028F80F236C
:100F4800FB6102233B6200237B624FF48063BB6238
:100F58000023FB6207F11C030221184601F038FC4C
:100F68000346002B01D000F012F801237B604FF4F8
:100F78000073BB603B1D184601F0B8FD0346002B0B
:100F880001D000F004F800BF5837BD4680BD80B4DA
:100F980000AF72B600BFFEE780B582B000AF1D4B50
:100FA8001D4A1A601B4B4FF0FF325A60194B4FF421
:100FB80080729A60174801F027FF0346002B01D082
:100FC800FFF7E5FF2423FB7102237B711923BB7113
:100FD80001233B713B1D012219460E4802F010F90E
:100FE8000346002B01D0FFF7D2FF10233B704123AB
:100FF8007B700023BB703B4601221946054801F06F
:101008008FFF0346002B01D0FFF7C1FF00BF083751
:10101800BD4680BDF40100200028004080B584B0A2
:1010280000AF78607B681B680B4A934210D101F0CF
:1010380041F90A4BDB69094A43F00063D361074B66
:10104800DB6903F00063FB60FB68054B01221A6053
:1010580000BF1037BD4680BD002800400010024088
:101068003C04424280B500AF174B184A1A60164B31
:101078004FF482725A60144B00229A60124B00227D
:10108800DA60114B00221A610F4B00225A610E4B95
:101098004FF400729A610C4B0822DA610A4B002265
:1010A8001A62094B00225A62074B00229A62064BC9
:1010B8000A22DA62044802F04FFC0346002B01D0F2
:1010C800FFF765FF00BF80BD080200200030014027
:1010D80080B588B000AF786007F1100300221A606D
:1010E8005A609A60DA607B681B68154A934223D17C
:1010F800144B9B69134A43F480539361114B9B69CA
:1011080003F48053FB60FB680E4B9B690D4A43F068
:10111800040393610B4B9B6903F00403BB60BB683A
:10112800A0233B6102237B610323FB6107F11003CA
:101138001946054800F0E2FE00BF2037BD4680BDD5
:1011480000300140001002400008014080B485B022
:1011580000AF154B9B69144A43F001039361124B8E
:101168009B6903F00103BB60BB680F4BDB690E4A48
:1011780043F08053D3610C4BDB6903F080537B60F1
:101188007B680A4B5B68FB60FB6823F0E063FB60ED
:10119800FB6843F00073FB60044AFB68536000BFC0
:1011A8001437BD4680BC7047001002400000014063
:1011B80080B400AFFEE780B400AFFEE780B400AFB4
:1011C800FEE780B400AFFEE780B400AFFEE780B46E
:1011D80000AF00BFBD4680BC704780B400AF00BF01
:1011E800BD4680BC704780B400AF00BFBD4680BC20
:1011F800704780B500AF00F033FD00BF80BD80B5FB
:1012080000AF102001F03EF800BF80BD80B400AFF1
:1012180001231846BD4680BC704780B582B000AF38
:101228007860396004F040FA034616221A604FF0DD
:10123800FF3318460837BD4680BD80B582B000AF81
:1012480078604FF0FF317868FFF7E7FFFEE780B579
:1012580086B000AFF860B9607A6000237B610AE06D
:10126800AFF300800146BB685A1CBA60CAB21A7054
:101278007B6901337B617A697B689A42F0DB7B6822
:1012880018461837BD4680BD80B586B000AFF860F7
:10129800B9607A6000237B6109E0BB685A1CBA60B8
:1012A8001B78184600F0ACF97B6901337B617A69D9
:1012B8007B689A42F1DB7B6818461837BD4680BDCB
:1012C80080B483B000AF78604FF0FF3318460C3716
:1012D800BD4680BC704780B483B000AF7860396089
:1012E8003B684FF400525A60002318460C37BD463D
:1012F80080BC704780B483B000AF78600123184683
:101308000C37BD4680BC704780B485B000AFF8602C
:10131800B9607A60002318461437BD4680BC704710
:1013280080B586B000AF7860144A154BD31A7B613C
:101338007B693B61134B1B68002B02D1114B124A8E
:101348001A60104B1A687B6813443A699A4207D2AC
:1013580004F0AAF903460C221A604FF0FF3309E0A3
:10136800084B1B68FB60074B1A687B681344054AE7
:101378001360FB6818461837BD4680BD0000012081
:1013880000040000600200204804002080B400AF80
:1013980000BFBD4680BC704780B58AB000AF07F17A
:1013A800200300221A605A603B1D00221A605A600E
:1013B8009A60DA601A615A619A61224B224A1A606D
:1013C800204B40F22B125A601E4B00229A601D4B94
:1013D8004FF47A72DA601B4B00221A61194B002213
:1013E8009A61184802F026FD0346002B01D0FFF74A
:1013F800CEFD00233B6200237B6207F120031946E0
:10140800104803F04FF80346002B01D0FFF7BFFD4B
:1014180060237B600023BB600023FB6000237B61AB
:101428003B1D04221946074802F054FD0346002BD1
:1014380001D0FFF7ACFD034800F026F800BF2837BD
:10144800BD4680BD640200200004004080B485B021
:1014580000AF78607B681B68094A93420BD1094B3F
:10146800DB69084A43F00203D361064BDB6903F0EA
:101478000203FB60FB6800BF1437BD4680BC7047A1
:10148800000400400010024080B588B000AF7860CA
:1014980007F10C0300221A605A609A60DA607B68D0
:1014A8001B68184A934229D1174B9B69164A43F087
:1014B80010039361144B9B6903F01003BB60BB6876
:1014C8008023FB6002233B610223BB6107F10C030D
:1014D80019460E4800F012FD0D4B5B68FB61FB6975
:1014E80023F44063FB61FB6943F0E063FB61FB6944
:1014F80043F44063FB61064AFB69536000BF203731
:10150800BD4680BD000400400010024000100140AC
:101518000000014080B500AF114B124A1A60104B11
:101528004FF4E1325A600E4B00229A600C4B0022B5
:10153800DA600B4B00221A61094B0C225A61084BE6
:1015480000229A61064B0022DA61054803F016F87A
:101558000346002B01D0FFF71AFD00BF80BD00BF76
:10156800AC0200200038014080B588B000AF786038
:1015780007F1100300221A605A609A60DA607B68EB
:101588001B681C4A934231D11B4B9B691A4A43F48E
:1015980080439361184B9B6903F48043FB60FB68AD
:1015A800154B9B69144A43F004039361124B9B69E2
:1015B80003F00403BB60BB684FF400733B61022374
:1015C8007B610323FB6107F1100319460B4800F008
:1015D80095FC4FF480633B6100237B610023BB6172
:1015E80007F110031946054800F088FC00BF2037B2
:1015F800BD4680BD0038014000100240000801408F
:1016080080B582B000AF7860391D4FF6FF730122B4
:10161800034803F003F87B6818460837BD4680BDC9
:10162800AC020020FFF7B2FE0B480C490C4A00231D
:1016380002E0D458C4500433C4188C42F9D3094A80
:10164800094C002301E013600432A242FBD304F0EA
:1016580031F8FFF795FB704700000020D401002007
:10166800CCAE0008D401002044040020FEE790B569
:1016780085B000AF0446084611461A462346FB804B
:101688000346BB800B467B8013463B807B88013B2F
:101698009AB23B88013B9BB2B988F88800F09EF962
:1016A800BB88FB8110E0FB88BB8106E03B8C1846B9
:1016B80000F065F9BB890133BB81BA897B889A42FE
:1016C800F4D3FB890133FB81FA893B889A42EAD338
:1016D80000BF00BF1437BD4690BD80B582B000AFD3
:1016E8000346FB800B46BB8013467B80BB88FA8889
:1016F800B988F88800F072F97B88184600F03FF93D
:1017080000BF0837BD4680BD90B587B000AF04461E
:10171800084611461A462346FB800346BB800B4603
:10172800FB7013463B8000237B75FB883B8297F850
:101738002C305B08FB73FB7BDB08DBB21A46FB7BB8
:1017480003F00703DBB2002B14BF01230023DBB235
:1017580013449BB297F82C2092B202FB03F3BB818F
:10176800FB78203BFB70FB7B9AB2FB8813449BB24F
:10177800013B9CB297F82C309AB2BB8813449BB2B9
:10178800013B9BB2B988F888224600F027F900236C
:101798007B8286E097F82C300C2B0BD1FA78798A6B
:1017A800454813465B0013449B0003440B441B78D5
:1017B800FB7528E097F82C30102B08D1FA787B8A33
:1017C8003E4912010A4413441B78FB751BE097F845
:1017D8002C30182B0BD1FA78798A394813465B00DC
:1017E80013441B0103440B441B78FB750BE097F86B
:1017F8002C30202B5BD1FA787B8A324992010A443B
:1018080013441B78FB750023BB7544E097F8303010
:10181800002B20D1FA7DBB7D42FA03F303F00103CC
:10182800002B04D03B88184600F0A9F803E03B8D54
:10183800184600F0A4F87B7D01337B757B7DFA7B2D
:10184800B3FBF2F101FB02F29B1ADBB2002B1FD1B2
:1018580000237B7522E0FA7DBB7D42FA03F303F097
:101868000103002B05D03A88B988FB881846FFF792
:1018780034FFFB880133FB80FA883B8AD21AFB7B52
:101888009A4205D13B8AFB80BB880133BB8005E0C7
:10189800BB7D0133BB75BB7D072BB7D97B8A013371
:1018A8007B827A8ABB899A42FFF474AF00E000BF5A
:1018B8001C37BD4690BD00BF3C770008B07B0008D0
:1018C800A08100087093000890B589B004AFBA6091
:1018D8001A460346FB810B46BB811346FB801AE080
:1018E800BB681A78FC88B989F88997F82830029378
:1018F80097F8243001933B8C00932346FFF704FFAD
:1019080097F824305B08DBB29AB2FB891344FB8159
:10191800BB680133BB60BB681B78002BE0D100BFFC
:1019280000BF1437BD4690BD80B582B000AF0346F6
:10193800FB7100221021094800F08BFCF91D4FF4BF
:101948007A730122064802F08BF80122102103481D
:1019580000F07FFC00BF0837BD4680BD001801407D
:101968000802002080B582B000AF0346FB71FB7906
:101978001846FFF7D9FF00BF0837BD4680BD80B5C0
:1019880082B000AF0346FB80FB881B0A9BB2DBB228
:101998001846FFF7C9FFFB88DBB21846FFF7C4FFFC
:1019A80000BF0837BD4680BD80B582B000AF034692
:1019B800FB7100220821084800F04BFCFB7918460F
:1019C800FFF7B2FF01220821034800F042FC00BFE4
:1019D8000837BD4680BD00BF0018014090B583B0F0
:1019E80000AF0446084611461A462346FB800346C4
:1019F800BB800B467B8013463B802A20FFF7D4FF31
:101A0800FB881846FFF7BBFF7B881846FFF7B7FF30
:101A18002B20FFF7C9FFBB881846FFF7B0FF3B88AC
:101A28001846FFF7ACFF2C20FFF7BEFF00BF0C37AE
:101A3800BD4690BD80B500AF00220421644800F087
:101A480008FC642000F028F901220421604800F015
:101A580000FC642000F020F9012220215C4800F0FD
:101A6800F8FB642000F018F91120FFF79DFF78209B
:101A780000F012F93620FFF797FF0020FFF772FFFA
:101A88003A20FFF791FF0520FFF76CFFB220FFF720
:101A98008BFF0C20FFF766FF0C20FFF763FF002089
:101AA800FFF760FF3320FFF75DFF3320FFF75AFF92
:101AB800B720FFF779FF3520FFF754FFBB20FFF76A
:101AC80073FF3220FFF74EFFC220FFF76DFF0120A2
:101AD800FFF748FFC320FFF767FF1520FFF742FF16
:101AE800C420FFF761FF2020FFF73CFFC620FFF767
:101AF8005BFF0F20FFF736FFD020FFF755FFA4202C
:101B0800FFF730FFA120FFF72DFFE020FFF74CFF84
:101B1800D020FFF727FF0820FFF724FF0E20FFF74C
:101B280021FF0920FFF71EFF0920FFF71BFF0520F3
:101B3800FFF718FF3120FFF715FF3320FFF712FFDB
:101B48004820FFF70FFF1720FFF70CFF1420FFF7BF
:101B580009FF1520FFF706FF3120FFF703FF3420A8
:101B6800FFF700FFE120FFF71FFFD020FFF7FAFE85
:101B78000820FFF7F7FE0E20FFF7F4FE0920FFF715
:101B8800F1FE0920FFF7EEFE1520FFF7EBFE3120EE
:101B9800FFF7E8FE3320FFF7E5FE4820FFF7E2FEF7
:101BA8001720FFF7DFFE1420FFF7DCFE1520FFF7F4
:101BB800D9FE3120FFF7D6FE3420FFF7D3FE2120CF
:101BC800FFF7F2FE2920FFF7EFFE00BF80BD00BF40
:101BD8000018014080B500AF084B1B68074A43F066
:101BE80010031360032000F047F9002000F008F804
:101BF800FFF7ACFA0023184680BD00BF0020024062
:101C080080B582B000AF7860124B1A68124B1B780F
:101C180019464FF47A73B3FBF1F3B2FBF3F31846AA
:101C280000F05FF90346002B01D001230EE07B682A
:101C38000F2B0AD8002279684FF0FF3000F027F9FF
:101C4800064A7B681360002300E001231846083722
:101C5800BD4680BD000000200800002004000020D0
:101C680080B400AF054B1B781A46054B1B6813441C
:101C7800034A136000BFBD4680BC704708000020BF
:101C8800F402002080B400AF024B1B681846BD4622
:101C980080BC7047F402002080B584B000AF786043
:101CA800FFF7F0FFB8607B68FB60FB68B3F1FF3FAC
:101CB80005D00A4B1B781A46FB681344FB6000BF2B
:101CC800FFF7E0FF0246BB68D31AFA689A42F7D8D2
:101CD80000BF00BF1037BD4680BD00BF0800002010
:101CE80080B485B000AF78607B6803F00703FB60C1
:101CF8000C4BDB68BB60BA684FF6FF031340BB6050
:101D0800FB681A02BB68134343F0BF6343F4003314
:101D1800BB60044ABB68D36000BF1437BD4680BCB3
:101D2800704700BF00ED00E080B400AF044BDB68F3
:101D38001B0A03F007031846BD4680BC704700BF66
:101D480000ED00E080B483B000AF0346FB7197F963
:101D58000730002B0BDBFB7903F01F02064997F9CC
:101D680007305B09012000FA02F241F8232000BF86
:101D78000C37BD4680BC704700E100E080B483B0FA
:101D880000AF03463960FB7197F90730002B0ADB77
:101D98003B68DAB20C4997F907301201D2B20B440A
:101DA80083F800230AE03B68DAB20849FB7903F0BC
:101DB8000F03043B1201D2B20B441A7600BF0C3752
:101DC800BD4680BC704700BF00E100E000ED00E0C8
:101DD80080B489B000AFF860B9607A60FB6803F03E
:101DE8000703FB61FB69C3F10703042B28BF042326
:101DF800BB61FB690433062B02D9FB69033B00E096
:101E080000237B614FF0FF32BB6902FA03F3DA4328
:101E1800BB681A407B699A404FF0FF317B6901FA31
:101E280003F3D9437B680B40134318462437BD4658
:101E380080BC704780B582B000AF78607B68013B9A
:101E4800B3F1807F01D301230FE00A4A7B68013B8D
:101E580053600F214FF0FF30FFF790FF054B002232
:101E68009A60044B07221A60002318460837BD46BB
:101E780080BD00BF10E000E080B582B000AF7860A0
:101E88007868FFF72DFF00BF0837BD4680BD80B5D5
:101E980086B000AF0346B9607A60FB7300237B61AC
:101EA800FFF742FF78617A68B9687869FFF790FFB1
:101EB800024697F90F3011461846FFF75FFF00BF3B
:101EC8001837BD4680BD80B582B000AF0346FB71B0
:101ED80097F907301846FFF735FF00BF0837BD46AA
:101EE80080BD80B582B000AF78607868FFF7A2FF48
:101EF800034618460837BD4680BD000080B48BB045
:101F080000AF7860396000237B6200233B6279E18F
:101F180001227B6A02FA03F3FB613B681B68FA69DA
:101F28001340BB61BA69FB699A4240F068813B681B
:101F38005B68964A93425ED0944A934275D8944A15
:101F4800934258D0924A93426FD8924A934252D0C1
:101F5800904A934269D8904A93424CD08E4A934211
:101F680063D88E4A934246D08C4A93425DD8122B4E
:101F78002AD8122B59D801A252F823F0FF1F0008C3
:101F8800D91F0008EB1F00082D2000083320000887
:101F980033200008332000083320000833200008CD
:101FA80033200008332000083320000833200008BD
:101FB80033200008332000083320000833200008AD
:101FC800E11F0008F51F0008754A934213D02CE062
:101FD8003B68DB683B6229E03B68DB6804333B62B3
:101FE80024E03B68DB6808333B621FE03B68DB6842
:101FF8000C333B621AE03B689B68002B02D1042338
:102008003B6213E03B689B68012B05D108233B62C8
:102018007B68FA691A6109E008233B627B68FA6900
:102028005A6103E000233B6200E000BFBB69FF2B5D
:1020380001D87B6801E07B6804337B61BB69FF2BB7
:1020480002D87B6A9B0002E07B6A083B9B003B61ED
:102058007B691A680F213B6901FA03F3DB431A40D5
:10206800396A3B6901FA03F31A437B691A603B68D2
:102078005B6803F08053002B00F0C180494B9B69DB
:10208800484A43F001039361464B9B6903F00103FF
:10209800BB60BB68444A7B6A9B08023352F8233012
:1020A800FB607B6A03F003039B000F2202FA03F331
:1020B800DB43FA681340FB607B683C4A93421FD0BD
:1020C8007B683B4A934219D07B683A4A934213D0C3
:1020D8007B68394A93420DD07B68384A934207D0CF
:1020E8007B68374A934201D105230AE0062308E0BA
:1020F800042306E0032304E0022302E0012300E0B6
:1021080000237A6A02F0030292009340FA681343AC
:10211800FB6025497B6A9B080233FA6841F8232053
:102128003B685B6803F48013002B06D0254B9A6844
:102138002449BB6913438B6006E0224B9A68BB694C
:10214800DB43204913408B603B685B6803F4001352
:10215800002B06D01B4BDA681A49BB691343CB60C6
:1021680006E0184BDA68BB69DB4316491340CB60BD
:102178003B685B6803F40033002B25D0114B5A6889
:102188001049BB6913434B6025E000BF00003210C3
:102198000000311000002210000021100000121071
:1021A800000011100010024000000140000801402A
:1021B800000C0140001001400014014000180140CB
:1021C800001C014000040140154B5A68BB69DB4301
:1021D800134913404B603B685B6803F48033002B62
:1021E80006D00F4B1A680E49BB6913430B6006E013
:1021F8000B4B1A68BB69DB43094913400B607B6AC8
:1022080001337B623B681A687B6A22FA03F3002B6E
:102218007FF47EAE00BF00BF2C37BD4680BC704740
:102228000004014080B485B000AF78600B467B8025
:102238007B689A687B881340002B02D00123FB73CC
:1022480001E00023FB73FB7B18461437BD4680BCB6
:10225800704780B483B000AF78600B467B8013462C
:102268007B707B78002B03D07A887B681A6103E047
:102278007B881A047B681A6100BF0C37BD4680BC96
:102288007047000080B582B000AF0346FB80084B62
:102298005A69FB881340002B06D0054AFB88536116
:1022A800FB881846FEF7F4FC00BF0837BD4680BD22
:1022B8000004014080B400AF034B01221A6000BF44
:1022C800BD4680BC704700BF20000E4280B586B076
:1022D80000AF78607B68002B01D1012372E27B6834
:1022E8001B6803F00103002B00F08780924B5B68AA
:1022F80003F00C03042B0CD08F4B5B6803F00C032A
:10230800082B12D18C4B5B6803F48033B3F5803F04
:102318000BD1894B1B6803F40033002B6CD07B680E
:102328005B68002B68D101234CE27B685B68B3F5DE
:10233800803F06D1804B1B687F4A43F4803313608B
:102348002EE07B685B68002B0CD17B4B1B687A4ABC
:1023580023F480331360784B1B68774A23F4802377
:1023680013601DE07B685B68B3F5A02F0CD1724B3E
:102378001B68714A43F4802313606F4B1B686E4AD5
:1023880043F4803313600BE06B4B1B686A4A23F4F9
:1023980080331360684B1B68674A23F480231360FB
:1023A8007B685B68002B13D0FFF76CFC386108E092
:1023B800FFF768FC02463B69D31A642B01D9032353
:1023C80000E25D4B1B6803F40033002BF0D014E0EF
:1023D800FFF758FC386108E0FFF754FC02463B69F8
:1023E800D31A642B01D90323ECE1534B1B6803F484
:1023F8000033002BF0D100E000BF7B681B6803F0BE
:102408000203002B63D04C4B5B6803F00C03002BDA
:102418000BD0494B5B6803F00C03082B1CD1464BCF
:102428005B6803F48033002B16D1434B1B6803F021
:102438000203002B05D07B681B69012B01D0012307
:10244800C0E13D4B1B6823F0F8027B685B69DB0049
:10245800394913430B603AE07B681B69002B20D095
:10246800364B01221A60FFF70DFC386108E0FFF7D0
:1024780009FC02463B69D31A022B01D90323A1E1C7
:102488002D4B1B6803F00203002BF0D02A4B1B686E
:1024980023F0F8027B685B69DB00274913430B6074
:1024A80015E0264B00221A60FFF7ECFB386108E0C4
:1024B800FFF7E8FB02463B69D31A022B01D9032335
:1024C80080E11D4B1B6803F00203002BF0D17B68F1
:1024D8001B6803F00803002B3AD07B689B69002B2C
:1024E80019D0174B01221A60FFF7CCFB386108E0BE
:1024F800FFF7C8FB02463B69D31A022B01D9032315
:1025080060E10D4B5B6A03F00203002BF0D0012061
:1025180000F0CEFA1CE00A4B00221A60FFF7B2FB6B
:1025280038610FE0FFF7AEFB02463B69D31A022B76
:1025380008D9032346E100BF0010024000004242D0
:1025480080044242924B5B6A03F00203002BE9D1FC
:102558007B681B6803F00403002B00F0A6800023AF
:10256800FB758B4BDB6903F08053002B0DD1884B37
:10257800DB69874A43F08053D361854BDB6903F0FD
:102588008053BB60BB680123FB75824B1B6803F457
:102598008073002B18D17F4B1B687E4A43F48073ED
:1025A8001360FFF76FFB386108E0FFF76BFB02462B
:1025B8003B69D31A642B01D9032303E1754B1B68CC
:1025C80003F48073002BF0D07B68DB68012B06D105
:1025D8006F4B1B6A6E4A43F0010313622DE07B6860
:1025E800DB68002B0CD16A4B1B6A694A23F0010394
:1025F8001362674B1B6A664A23F0040313621CE0EC
:102608007B68DB68052B0CD1614B1B6A604A43F081
:10261800040313625E4B1B6A5D4A43F001031362B5
:102628000BE05B4B1B6A5A4A23F001031362584BB9
:102638001B6A574A23F0040313627B68DB68002B8C
:1026480015D0FFF71FFB38610AE0FFF71BFB0246B6
:102658003B69D31A41F28832934201D90323B1E08E
:102668004B4B1B6A03F00203002BEED014E0FFF77C
:1026780009FB38610AE0FFF705FB02463B69D31AFC
:1026880041F28832934201D903239BE0404B1B6AF5
:1026980003F00203002BEED1FB7D012B05D13C4B4F
:1026A800DB693B4A23F08053D3617B68DB69002BED
:1026B80000F08780364B5B6803F00C03082B61D071
:1026C8007B68DB69022B46D1334B00221A60FFF787
:1026D800D9FA386108E0FFF7D5FA02463B69D31A00
:1026E800022B01D903236DE0294B1B6803F000730B
:1026F800002BF0D17B681B6AB3F5803F08D1244BCF
:102708005B6823F400327B689B68214913434B6064
:102718001F4B5B6823F474127B68196A7B685B6AD9
:102728000B431B4913434B601B4B01221A60FFF7F5
:10273800A9FA386108E0FFF7A5FA02463B69D31AFF
:10274800022B01D903233DE0114B1B6803F00073F2
:10275800002BF0D035E0104B00221A60FFF792FAF8
:10276800386108E0FFF78EFA02463B69D31A022B5C
:1027780001D9032326E0064B1B6803F00073002BE6
:10278800F0D11EE07B68DB69012B07D1012319E03A
:102798000010024000700040600042420B4B5B6832
:1027A800FB60FB6803F480327B681B6A9A4206D19F
:1027B800FB6803F470127B685B6A9A4201D00123BC
:1027C80000E0002318461837BD4680BD00100240BF
:1027D80080B584B000AF786039607B68002B01D188
:1027E8000123D0E06A4B1B6803F007033A689A425A
:1027F80010D9674B1B6823F0070265493B681343F0
:102808000B60634B1B6803F007033A689A4201D0D8
:102818000123B8E07B681B6803F00203002B20D07B
:102828007B681B6803F00403002B05D0594B5B68D9
:10283800584A43F4E06353607B681B6803F008035D
:10284800002B05D0534B5B68524A43F460535360E6
:10285800504B5B6823F0F0027B689B684D4913433B
:102868004B607B681B6803F00103002B40D07B683A
:102878005B68012B07D1474B1B6803F40033002B1F
:1028880015D101237FE07B685B68022B07D1414BA0
:102898001B6803F00073002B09D1012373E03D4B43
:1028A8001B6803F00203002B01D101236BE0394BB5
:1028B8005B6823F003027B685B68364913434B600F
:1028C800FFF7E0F9F8600AE0FFF7DCF90246FB6879
:1028D800D31A41F28832934201D9032353E02D4B96
:1028E8005B6803F00C027B685B689B009A42EBD143
:1028F800274B1B6803F007033A689A4210D2244B0F
:102908001B6823F0070222493B6813430B60204BE6
:102918001B6803F007033A689A4201D0012332E0AA
:102928007B681B6803F00403002B08D0194B5B6815
:1029380023F4E0627B68DB68164913434B607B68CD
:102948001B6803F00803002B09D0124B5B6823F4C3
:1029580060527B681B69DB000E4913434B6000F033
:1029680021F802460B4B5B681B0903F00F030A4969
:10297800CB5C22FA03F3094A1360094B1B6818461B
:10298800FFF73EF9002318461037BD4680BD00BF4B
:1029980000200240001002402477000800000020B8
:1029A8000400002080B487B000AF0023FB60002340
:1029B800BB6000237B6100237B6000233B611E4BCF
:1029C8005B68FB60FB6803F00C03042B02D0082B48
:1029D80003D027E0194B3B6127E0FB689B0C03F011
:1029E8000F03174AD35C7B60FB6803F48033002B2A
:1029F80010D0114B5B685B0C03F00103114AD35CE8
:102A0800BB607B680D4A03FB02F2BB68B2FBF3F3C1
:102A18007B6104E07B680C4A02FB03F37B617B6902
:102A28003B6102E0054B3B6100BF3B6918461C3720
:102A3800BD4680BC704700BF0010024000127A00FB
:102A480030AB000840AB000800093D0080B400AF7F
:102A5800024B1B681846BD4680BC7047000000202A
:102A680080B500AFFFF7F2FF0246054B5B681B0A13
:102A780003F007030349CB5C22FA03F3184680BD31
:102A8800001002403477000880B500AFFFF7DEFF82
:102A98000246054B5B68DB0A03F007030349CB5C7E
:102AA80022FA03F3184680BD00100240347700086C
:102AB80080B485B000AF78600A4B1B680A4AA2FB55
:102AC80003235B0A7A6802FB03F3FB6000BFFB6821
:102AD8005A1EFA60002BF9D100BF00BF1437BD465B
:102AE80080BC704700000020D34D621080B586B0CE
:102AF80000AF786000233B610023FB607B681B68A4
:102B080003F00103002B7DD00023FB754F4BDB69DD
:102B180003F08053002B0DD14C4BDB694B4A43F03B
:102B28008053D361494BDB6903F08053BB60BB68BA
:102B38000123FB75464B1B6803F48073002B18D1E7
:102B4800434B1B68424A43F480731360FFF79AF8BB
:102B5800386108E0FFF796F802463B69D31A642B00
:102B680001D903236DE03A4B1B6803F48073002BF3
:102B7800F0D0364B1B6A03F44073FB60FB68002BF4
:102B88002ED07B685B6803F44073FA689A4227D0BA
:102B98002E4B1B6A23F44073FB602E4B01221A60F4
:102BA8002C4B00221A60294AFB681362FB6803F069
:102BB8000103002B14D0FFF765F838610AE0FFF72E
:102BC80061F802463B69D31A41F28832934201D92F
:102BD800032336E01D4B1B6A03F00203002BEED0E3
:102BE8001A4B1B6A23F440727B685B6817491343CE
:102BF8000B62FB7D012B05D1144BDB69134A23F0D3
:102C08008053D3617B681B6803F00203002B08D054
:102C18000E4B5B6823F440427B689B680B49134367
:102C28004B607B681B6803F01003002B08D0074B30
:102C38005B6823F480027B685B69044913434B603B
:102C4800002318461837BD4680BD00BF001002405B
:102C5800007000404004424280B588B000AF786000
:102C680000237B610023FB6100233B610023FB60A1
:102C78000023BB617B68013B0F2B00F2AF8001A2F0
:102C880052F823F0632D0008C92D0008E52D00082F
:102C9800532D0008E52D0008E52D0008E52D000856
:102CA8005B2D0008E52D0008E52D0008E52D00083E
:102CB800E52D0008E52D0008E52D0008E52D0008A4
:102CC800CD2C00084A4B5B68FB60494B1B6803F03E
:102CD8008073002B00F08480FB689B0C03F00F03CB
:102CE800444AD35C3B61FB6803F48033002B15D066
:102CF8003F4B5B685B0C03F001033F4AD35C7B618D
:102D0800FB6803F48033002B0DD03C4A7B69B2FB8F
:102D1800F3F23B6902FB03F3FB6104E03B69384AC9
:102D280002FB03F3FB61324B5B6803F48003B3F5EA
:102D3800800F02D1FB69BB6152E0FB695B00314A3D
:102D4800A2FB03235B08BB614AE0FFF72BFEB861D7
:102D580049E0FFF727FEB86145E0254B1B6AFB6099
:102D6800FB6803F44073B3F5807F08D1FB6803F078
:102D78000203002B03D04FF40043BB611FE0FB6844
:102D880003F44073B3F5007F09D1194B5B6A03F074
:102D98000203002B03D049F64043BB610FE0FB68F8
:102DA80003F44073B3F5407F1CD1114B1B6803F447
:102DB8000033002B16D04FF22443BB6112E011E020
:102DC800FFF762FE02460A4B5B689B0B03F00303A6
:102DD80001335B00B2FBF3F3BB6104E000BF02E028
:102DE80000BF00E000BFBB6918462037BD4680BD64
:102DF8000010024044AB000854AB000800127A00EF
:102E080000093D00ABAAAAAA80B584B000AF7860DB
:102E18000023FB607B68002B01D101237AE07B68EB
:102E28005B7CDBB2002B05D17B6800221A747868C2
:102E3800FEF7F4F87B6802225A74786800F0EAFA20
:102E48000346002B04D07B6804225A74012361E0F6
:102E5800786800F0A3FB0346002B04D07B680422AB
:102E68005A74012356E07B681B685A687B681B68A4
:102E780022F007025A607B689B68002B05D0274B1D
:102E88001B6B264A23F001031363244BDB6A23F4EC
:102E980060727B689B6821491343CB627B685B68DF
:102EA800B3F1FF3F03D07B685B68FB600EE0012055
:102EB800FFF7D2FEF860FB68002B04D17B68042280
:102EC8005A74012326E0FB68013BFB60FB681A0C7F
:102ED8007B681B6802F00F029A607B681B68FA68BF
:102EE80092B2DA60786800F081FB0346002B04D0C8
:102EF8007B6804225A7401230CE07B680022DA7391
:102F08007B6801225A737B6801229A737B680122CD
:102F18005A74002318461037BD4680BD006C004027
:102F280090B587B000AFF860B9607A6000237B6124
:102F380000233B61FB68002B02D0BB68002B01D14A
:102F4800012380E0FB681B7C012B01D102237AE07E
:102F5800FB6801221A74FB6802225A747B68002BF2
:102F680013D1BB681B781A464FF4616303FB02F266
:102F7800BB685B7819460B461B015B1A9B00134420
:102F8800BA68927813447B611EE0BB681B781846C8
:102F980000F071FB03461A464FF4616303FB02F429
:102FA800BB685B78184600F066FB03461A46134672
:102FB8001B019B1A9B001C44BB689B78184600F0B9
:102FC8005AFB034623447B617969F86800F07FFA6D
:102FD8000346002B07D0FB6804225A74FB680022C2
:102FE8001A7401232FE0FB681B685A68FB681B688A
:102FF80022F005025A60F86800F090FA38613B69DF
:10300800B3F1FF3F18D03A697B699A4214D23B6901
:1030180003F5A83303F5C0733B613969F86800F01C
:1030280096FA0346002B07D0FB6804225A74FB6803
:1030380000221A74012306E0FB6801225A74FB6817
:1030480000221A74002318461C37BD4690BD0000A4
:1030580080B588B000AFF860B9607A600023BB61C2
:103068000023FB6100237B6100233B61FB68002B8D
:1030780002D0BB68002B01D10123B5E0FB681B68B7
:103088005B6803F00403002B01D00123ACE0F8686F
:1030980000F0EDF9B861BB69554AA2FB0323DB0ACE
:1030A8003B61BA69524BA3FB0213DB0A4FF461611F
:1030B80001FB03F3D31A4F4AA2FB03235B09DAB2DD
:1030C800BB685A70BB694A4AA2FB0312D20A4FF482
:1030D800616101FB02F29A1A464BA3FB02135909DC
:1030E8000B461B015B1A9B00D11ACAB2BB689A70C7
:1030F8003B69172B55D93B693F4AA2FB03231B09A0
:103108007B6139693C4BA3FB01231A0913465B0019
:103118001344DB00CA1AD2B2BB681A70F86800F010
:10312800FDF9F861FB69B3F1FF3F08D0FA69BB69A3
:103138009A4204D9FA69BB69D31AFB6102E04FF0DD
:10314800FF33FB617B692D4A02FB03F3BA69D31A8B
:10315800BB61B969F86800F0BAF90346002B01D0E1
:10316800012341E0FB69B3F1FF3F0CD0FA69BB6969
:103178001344FB61F969F86800F0E9F90346002B8C
:103188000AD0012330E0F969F86800F0E0F9034655
:10319800002B01D0012327E07969F86800F088FA4C
:1031A80003E03B69DAB2BB681A707B68002B1AD05F
:1031B800BB681B78184600F041FA03461A46BB68FC
:1031C8001A70BB685B78184600F038FA03461A464E
:1031D800BB685A70BB689B78184600F02FFA034604
:1031E8001A46BB689A70002318462037BD4680BD32
:1031F800C5B3A29189888888ABAAAAAA8051010080
:1032080080B588B000AFF860B9607A600023FB61D0
:103218000023BB6100237B61FB68002B02D0BB68E5
:10322800002B01D1012397E0FB681B7C012B01D106
:10323800022391E0FB6801221A74FB6802225A7487
:103248007B68002B0CD1BB68DA78FB68DA73BB6843
:103258005A78FB685A73BB689A78FB689A731AE0C5
:10326800BB68DB78184600F006FA03461A46FB6886
:10327800DA73BB685B78184600F0FDF903461A4616
:10328800FB685A73BB689B78184600F0F4F903464C
:103298001A46FB689A73FB68DB7B1846FB68597B08
:1032A800FB689B7B1A4600F0DFFA03461A46FB6868
:1032B8001A73FB681A7BBB681A70F86800F0D7F8B5
:1032C800F861FB69264AA2FB0323DB0A7B617B6961
:1032D800182B3AD97B69234AA2FB03231B09224AEC
:1032E80002FB03F3FA69D31AFB61F969F86800F085
:1032F800EEF80346002B07D0FB6804225A74FB68DB
:1033080000221A74012327E0F86800F007F9B86171
:10331800BB69B3F1FF3F18D0BA69FB699A4214D26E
:10332800BB6903F5A83303F5C073BB61B969F868D5
:1033380000F00DF90346002B07D0FB6804225A74ED
:10334800FB6800221A74012306E0FB6801225A7404
:10335800FB6800221A74002318462037BD4680BD3A
:10336800C5B3A291ABAAAAAA8051010080B586B0C4
:1033780000AFF860B9607A6007F1140300210A46CB
:103388001A800A469A70FB68002B02D0BB68002B93
:1033980001D101233AE007F1140300221946F86825
:1033A800FFF756FE0346002B01D001232EE0FB68F1
:1033B8001A7BBB681A70FB68DA7BBB68DA70FB683B
:1033C8005A7BBB685A70FB689A7BBB689A707B68AB
:1033D800002B1AD0BB68DB78184600F02FF903469B
:1033E8001A46BB68DA70BB685B78184600F026F9A5
:1033F80003461A46BB685A70BB689B78184600F0AB
:103408001DF903461A46BB689A70002318461837F8
:10341800BD4680BD80B584B000AF78600023FB60F6
:103428007B68002B01D101231DE07B681B685A686B
:103438007B681B6822F008025A60FEF723FCF860DC
:1034480009E0FEF71FFC0246FB68D31AB3F57A7F42
:1034580001D9032307E07B681B685B6803F0080356
:10346800002BEED0002318461037BD4680BD80B42F
:1034780087B000AF786000237B8200233B82002363
:10348800FB8100237B617B681B689B697B827B686F
:103498001B68DB69FB817B681B689B693B827A8AB6
:1034A8003B8A9A4208D03B8A1A047B681B68DB690E
:1034B8009BB213437B6104E07B8A1A04FB891343A4
:1034C8007B617B6918461C37BD4680BC704780B558
:1034D80084B000AF786039600023FB73786800F02F
:1034E8005DF80346002B02D00123FB7311E07B68D3
:1034F8001B683A68120C9A617B681B683A6892B23A
:10350800DA61786800F072F80346002B01D00123D5
:10351800FB73FB7B18461037BD4680BD80B485B071
:1035280000AF78600023FB810023BB817B681B68A8
:103538001B6AFB817B681B685B6ABB81FB891A0479
:10354800BB89134318461437BD4680BC704780B505
:1035580084B000AF786039600023FB73786800F0AE
:103568001DF80346002B02D00123FB7311E07B6892
:103578001B683A68120C1A627B681B683A6892B238
:103588005A62786800F032F80346002B01D0012314
:10359800FB73FB7B18461037BD4680BD80B584B0F1
:1035A80000AF78600023FB60FEF76CFBF86009E071
:1035B800FEF768FB0246FB68D31AB3F57A7F01D998
:1035C80003230FE07B681B685B6803F02003002B74
:1035D800EED07B681B685A687B681B6842F0100253
:1035E8005A60002318461037BD4680BD80B584B0A8
:1035F80000AF78600023FB607B681B685A687B68B3
:103608001B6822F010025A60FEF73CFBF86009E0E4
:10361800FEF738FB0246FB68D31AB3F57A7F01D967
:10362800032307E07B681B685B6803F02003002B1B
:10363800EED0002318461037BD4680BD80B485B053
:1036480000AF0346FB710023FB6005E0FB68013314
:10365800FB60FB790A3BFB71FB79092BF6D8FB6809
:10366800DBB21B01DAB2FB791343DBB2184614371D
:10367800BD4680BC704780B485B000AF0346FB717F
:103688000023FB60FB791B09DBB21A4613469B003B
:1036980013445B00FB60FB7903F00F03DAB2FB68AD
:1036A800DBB21344DBB218461437BD4680BC704702
:1036B80080B586B000AF7860396000237B61002355
:1036C8003B610023FB600023BB607B68DB7B7B6185
:1036D8007B685B7B3B617B689B7BFB600023BB60FB
:1036E8006FE03B69012B11D03B69032B0ED03B697E
:1036F800052B0BD03B69072B08D03B69082B05D05D
:103708003B690A2B02D03B690C2B17D1FB681E2B97
:1037180003D8FB680133FB6050E03B690C2B05D0F4
:103728003B6901333B610123FB6047E001233B61B7
:103738000123FB607B6901337B613FE03B69042B1C
:1037480008D03B69062B05D03B69092B02D03B69A1
:103758000B2B0CD1FB681D2B03D8FB680133FB60D6
:103768002CE03B6901333B610123FB6026E03B69A8
:10377800022B23D1FB681B2B03D8FB680133FB60AA
:103788001CE0FB681C2B11D17B699BB2184600F02A
:1037980039F80346002B03D0FB680133FB600DE0CA
:1037A8003B6901333B610123FB6007E0FB681D2B8C
:1037B80004D13B6901333B610123FB60BB680133E2
:1037C800BB60BA683B689A428BD37B69DAB27B6884
:1037D800DA733B69DAB27B685A73FB68DAB27B68E2
:1037E8009A733B69DBB2FA68D2B21946786900F07D
:1037F8003BF803461A467B681A7300BF1837BD4664
:1038080080BD000080B483B000AF0346FB80FB8816
:1038180003F003039BB2002B01D000231DE0FB88BB
:10382800104AA2FB03125209642101FB02F29B1AFF
:103838009BB2002B01D001230FE0FB88094AA2FBB1
:103848000312D2094FF4C87101FB02F29B1A9BB212
:10385800002B01D1012300E0002318460C37BD4698
:1038680080BC70471F85EB5180B485B000AF78608D
:103878000B46FB701346BB700023BB600023FB6044
:103888007B6803F5FA63BB60FB78022B2DD8FA78C6
:1038980013465B001344DB009B1A2C4AA2FB03234C
:1038A8005A08BB781A44BB681A44BB68013B9B089A
:1038B8001A44BB68013B2649A1FB03135B09D21AD2
:1038C800BB68013B2249A1FB0313DB0913441A1D02
:1038D800204BA3FB0213D11A49080B4499080B4645
:1038E800DB005B1AD31AFB6029E0FA7813465B0009
:1038F8001344DB009B1A154AA2FB03235A08BB7822
:103908001A44BB681A44BB689B081A44BB68104930
:10391800A1FB03135B09D21ABB680D49A1FB031372
:10392800DB0913449A1C0B4BA3FB0213D11A490859
:103938000B4499080B46DB005B1AD31AFB60FB6843
:10394800DBB218461437BD4680BC7047398EE33861
:103958001F85EB512549922480B582B000AF78606D
:103968007B68002B01D1012376E07B685B6A002B22
:1039780008D17B685B68B3F5827F09D07B68002239
:10398800DA6105E07B6800221A617B6800225A61CF
:103998007B6800229A627B6893F85130DBB2002B77
:1039A80006D17B68002283F850207868FDF790FBE9
:1039B8007B68022283F851207B681B681A687B6841
:1039C8001B6822F040021A607B685B6803F482720D
:1039D8007B689B6803F404431A437B68DB6803F441
:1039E80000631A437B681B6903F002031A437B6870
:1039F8005B6903F001031A437B689B6903F4007356
:103A08001A437B68DB6903F038031A437B681B6A37
:103A180003F0800342EA03017B689B6A03F40052C7
:103A28007B681B680A431A607B689B691A0C7B6871
:103A38001B6802F004025A607B681B68DA697B68BD
:103A48001B6822F40062DA617B6800225A657B6891
:103A5800012283F85120002318460837BD4680BD4F
:103A680080B588B000AFF860B9603B601346FB8052
:103A78000023FB77FB6893F85030012B01D1022318
:103A88002DE1FB68012283F85020FEF7FBF8B861AE
:103A9800FB88FB82FB6893F85130DBB2012B02D024
:103AA8000223FB7716E1BB68002B02D0FB88002BB2
:103AB80002D10123FB770DE1FB68032283F8512033
:103AC800FB6800225A65FB68BA681A63FB68FA88C3
:103AD8009A86FB68FA88DA86FB6800229A63FB6894
:103AE80000229A87FB680022DA87FB6800225A6462
:103AF800FB6800221A64FB689B68B3F5004F0FD17E
:103B0800FB681B681A68FB681B6822F040021A6091
:103B1800FB681B681A68FB681B6842F480421A60DD
:103B2800FB681B681B6803F04003402B07D0FB6849
:103B38001B681A68FB681B6842F040021A60FB6841
:103B4800DB68B3F5006F4FD1FB685B68002B02D0D0
:103B5800FB8A012B42D1FB681B6B1A88FB681B6828
:103B6800DA60FB681B6B9A1CFB681A63FB68DB8EC8
:103B78009BB2013B9AB2FB68DA862FE0FB681B68B0
:103B88009B6803F00203022B12D1FB681B6B1A8897
:103B9800FB681B68DA60FB681B6B9A1CFB681A637E
:103BA800FB68DB8E9BB2013B9AB2FB68DA8615E0B4
:103BB800FEF768F80246BB69D31A3A689A4203D8F6
:103BC8003B68B3F1FF3F02D13B68002B06D10323CA
:103BD800FB77FB68012283F851207BE0FB68DB8ED2
:103BE8009BB2002BCAD150E0FB685B68002B02D067
:103BF800FB8A012B44D1FB681A6BFB681B680C33EA
:103C080012781A70FB681B6B5A1CFB681A63FB68F6
:103C1800DB8E9BB2013B9AB2FB68DA8630E0FB6828
:103C28001B689B6803F00203022B13D1FB681A6B15
:103C3800FB681B680C3312781A70FB681B6B5A1CE4
:103C4800FB681A63FB68DB8E9BB2013B9AB2FB6888
:103C5800DA8615E0FEF716F80246BB69D31A3A6809
:103C68009A4203D83B68B3F1FF3F02D13B68002B6F
:103C780006D10323FB77FB68012283F8512029E052
:103C8800FB68DB8E9BB2002BC9D1BA693968F8682A
:103C980000F0B2F80346002B02D0FB6820225A65D8
:103CA800FB689B68002B0AD100233B61FB681B68FB
:103CB800DB683B61FB681B689B683B613B69FB6891
:103CC8005B6D002B02D00123FB7703E0FB68012228
:103CD80083F85120FB68002283F85020FB7F1846A8
:103CE8002037BD4680BD000080B588B000AFF860C1
:103CF800B9603B601346FB71FDF7C4FF0246BB6A1F
:103D08009B1A3A681344FB61FDF7BCFFB861394B55
:103D18001B685B011B0DFA6902FB03F37B6154E02E
:103D28003B68B3F1FF3F50D0FDF7ACFF0246BB69DB
:103D3800D31AFA699A4202D9FB69002B3DD1FB6874
:103D48001B685A68FB681B6822F0E0025A60FB682F
:103D58005B68B3F5827F11D1FB689B68B3F5004FB0
:103D680004D0FB689B68B3F5806F07D1FB681B68BC
:103D78001A68FB681B6822F040021A60FB689B6A9D
:103D8800B3F5005F0FD1FB681B681A68FB681B68F6
:103D980022F400521A60FB681B681A68FB681B68EB
:103DA80042F400521A60FB68012283F85120FB6834
:103DB800002283F85020032317E07B69002B01D1F0
:103DC8000023FB617B69013B7B61FB681B689A6888
:103DD800BB681340BA689A420CBF01230023DBB2C8
:103DE8001A46FB799A429BD1002318462037BD46D4
:103DF80080BD00BF0000002080B586B002AFF8602B
:103E0800B9607A607B680093BB6800228021F868FB
:103E1800FFF76AFF0346002B07D0FB685B6D43F092
:103E28002002FB685A65032300E000231846103778
:103E3800BD4680BD80B582B000AF78607B68002B3E
:103E480001D1012341E07B6893F83D30DBB2002BC0
:103E580006D17B68002283F83C207868FDF7F6FAE3
:103E68007B68022283F83D207B681A687B680433EC
:103E78001946104600F0F0F87B68012283F84620C6
:103E88007B68012283F83E207B68012283F83F206B
:103E98007B68012283F840207B68012283F8412057
:103EA8007B68012283F842207B68012283F8432043
:103EB8007B68012283F844207B68012283F845202F
:103EC8007B68012283F83D20002318460837BD4649
:103ED80080BD000080B586B000AFF860B9607A6038
:103EE8000023FB75FB6893F83C30012B01D10223BA
:103EF800AEE0FB68012283F83C207B680C2B00F2C3
:103F08009F8001A252F823F0453F0008494000086D
:103F18004940000849400008853F0008494000081A
:103F28004940000849400008C73F000849400008C8
:103F3800494000084940000807400008FB681B6822
:103F4800B968184600F002F9FB681B689A69FB68B3
:103F58001B6842F008029A61FB681B689A69FB6853
:103F68001B6822F004029A61FB681B689969BB68A8
:103F78001A69FB681B680A439A6164E0FB681B685E
:103F8800B968184600F052F9FB681B689A69FB6823
:103F98001B6842F400629A61FB681B689A69FB68B7
:103FA8001B6822F480629A61FB681B689969BB6888
:103FB8001B691A02FB681B680A439A6143E0FB68A5
:103FC8001B68B968184600F0A5F9FB681B68DA6930
:103FD800FB681B6842F00802DA61FB681B68DA6953
:103FE800FB681B6822F00402DA61FB681B68D96968
:103FF800BB681A69FB681B680A43DA6123E0FB683F
:104008001B68B968184600F0F9F9FB681B68DA699B
:10401800FB681B6842F40062DA61FB681B68DA69B6
:10402800FB681B6822F48062DA61FB681B68D96947
:10403800BB681B691A02FB681B680A43DA6102E065
:104048000123FB7500BFFB68002283F83C20FB7D41
:1040580018461837BD4680BD80B485B000AF78607B
:1040680039607B681B68FB607B68334A934213D0D6
:104078007B68324A93420FD07B68B3F1804F0BD0F4
:104088007B682F4A934207D07B682E4A934203D01D
:104098007B682D4A934208D1FB6823F07003FB60CC
:1040A8003B685B68FA681343FB607B68224A93426B
:1040B80013D07B68214A93420FD07B68B3F1804FBD
:1040C8000BD07B681E4A934207D07B681D4A9342F7
:1040D80003D07B681C4A934208D1FB6823F44073E1
:1040E800FB603B68DB68FA681343FB60FB6823F0FE
:1040F80080023B685B691343FB607B68FA681A605F
:104108003B689A687B68DA623B681A687B689A62DF
:104118007B68094A934203D07B68084A934203D1DB
:104128003B681A697B681A637B6801225A6100BF81
:104138001437BD4680BC7047002C01400034014054
:104148000004004000080040000C004080B487B024
:1041580000AF786039607B681B6A7B617B681B6A8B
:1041680023F001027B681A627B685B683B617B68AD
:104178009B69FB60FB6823F07003FB60FB6823F01E
:104188000303FB603B681B68FA681343FB607B69A9
:1041980023F002037B613B689B687A6913437B6168
:1041A8007B68204A934203D07B681F4A93420CD114
:1041B8007B6923F008037B613B68DB687A691343FA
:1041C8007B617B6923F004037B617B68154A93421A
:1041D80003D07B68144A934211D13B6923F480735E
:1041E8003B613B6923F400733B613B685B693A6957
:1041F80013433B613B689B693A6913433B617B68A6
:104208003A695A607B68FA689A613B685A687B68C1
:104218005A637B687A691A6200BF1C37BD4680BC46
:10422800704700BF002C01400034014080B487B0C3
:1042380000AF786039607B681B6A7B617B681B6AAA
:1042480023F010027B681A627B685B683B617B68BD
:104258009B69FB60FB6823F4E043FB60FB6823F485
:104268004073FB603B681B681B02FA681343FB60E2
:104278007B6923F020037B613B689B681B017A699B
:1042880013437B617B68214A934203D07B68204AB1
:1042980093420DD17B6923F080037B613B68DB6827
:1042A8001B017A6913437B617B6923F040037B61BF
:1042B8007B68164A934203D07B68154A934213D110
:1042C8003B6923F480633B613B6923F400633B61F2
:1042D8003B685B699B003A6913433B613B689B6998
:1042E8009B003A6913433B617B683A695A607B6873
:1042F800FA689A613B685A687B689A637B687A694E
:104308001A6200BF1C37BD4680BC7047002C0140B4
:104318000034014080B487B000AF786039607B68B2
:104328001B6A7B617B681B6A23F480727B681A6254
:104338007B685B683B617B68DB69FB60FB6823F03B
:104348007003FB60FB6823F00303FB603B681B689A
:10435800FA681343FB607B6923F400737B613B6855
:104368009B681B027A6913437B617B68214A9342ED
:1043780003D07B68204A93420DD17B6923F4006304
:104388007B613B68DB681B027A6913437B617B694D
:1043980023F480637B617B68164A934203D07B6871
:1043A800154A934213D13B6923F480533B613B691F
:1043B80023F400533B613B685B691B013A69134373
:1043C8003B613B689B691B013A6913433B617B680E
:1043D8003A695A607B68FA68DA613B685A687B68B0
:1043E800DA637B687A691A6200BF1C37BD4680BCF5
:1043F800704700BF002C01400034014080B487B0F2
:1044080000AF786039607B681B6A3B617B681B6A18
:1044180023F480527B681A627B685B687B617B68E7
:10442800DB69FB60FB6823F4E043FB60FB6823F473
:104438004073FB603B681B681B02FA681343FB6010
:104448003B6923F400533B613B689B681B033A6953
:1044580013433B617B68114A934203D07B68104A3F
:10446800934209D17B6923F480437B613B685B6994
:104478009B017A6913437B617B687A695A607B6820
:10448800FA68DA613B685A687B681A647B683A693B
:104498001A6200BF1C37BD4680BC7047002C014023
:1044A8000034014080B485B000AF786039607B6823
:1044B80093F83C30012B01D1022350E07B680122A4
:1044C80083F83C207B68022283F83D207B681B68C8
:1044D8005B68FB607B681B689B68BB60FB6823F0BC
:1044E8007003FB603B681B68FA681343FB607B68DA
:1044F8001B68FA685A607B681B681B4A934218D08D
:104508007B681B68194A934213D07B681B68B3F118
:10451800804F0ED07B681B68154A934209D07B6890
:104528001B68144A934204D07B681B68124A934262
:104538000CD1BB6823F08003BB603B685B68BA683A
:104548001343BB607B681B68BA689A607B6801226A
:1045580083F83D207B68002283F83C20002318461E
:104568001437BD4680BC7047002C01400034014020
:104578000004004000080040000C004080B582B0F4
:1045880000AF78607B68002B01D1012342E07B6893
:1045980093F84130DBB2002B06D17B68002283F808
:1045A80040207868FCF7E0FF7B68242283F84120EC
:1045B8007B681B68DA687B681B6822F40052DA6043
:1045C800786800F01DF97B681B681A697B681B68AE
:1045D80022F490421A617B681B685A697B681B68E1
:1045E80022F02A025A617B681B68DA687B681B68BC
:1045F80042F40052DA607B6800225A647B68202209
:1046080083F841207B68202283F842207B680022BF
:104618005A63002318460837BD4680BD80B58AB066
:1046280002AFF860B9603B601346FB8000237B61F2
:10463800FB6893F84130DBB2202B6DD1BB68002BAF
:1046480002D0FB88002B01D1012366E0FB68002221
:104658005A64FB68212283F84120FDF713FB786137
:10466800FB68FA889A84FB68FA88DA84FB689B6896
:10467800B3F5805F08D1FB681B69002B04D10023C8
:10468800FB61BB68BB6103E0BB68FB610023BB61E6
:104698002AE03B6800937B6900228021F86800F0DB
:1046A80040F80346002B01D0032336E0FB69002BBA
:1046B8000BD1BB691B881A46FB681B68C2F308024A
:1046C8005A60BB690233BB6107E0FB691A78FB6873
:1046D8001B685A60FB690133FB61FB68DB8C9BB28A
:1046E800013B9AB2FB68DA84FB68DB8C9BB2002B37
:1046F800CFD13B6800937B6900224021F86800F025
:1047080010F80346002B01D0032306E0FB682022A3
:1047180083F84120002300E0022318462037BD46D5
:1047280080BD80B590B000AFF860B9603B601346BB
:10473800FB7150E0BB6CB3F1FF3F4CD0BB6C002B5E
:1047480007D0FDF79FFA02463B68D31ABA6C9A4223
:1047580041D2FB681B680C33BB62BB6A53E8003F5D
:104768007B627B6A23F4D073FB63FB681B680C33A2
:10477800FA6B7A633B63396B7A6B41E80023FB621F
:10478800FB6A002BE5D1FB681B6814337B617B69EE
:1047980053E8003F3B613B6923F00103BB63FB68BF
:1047A8001B681433BA6B3A62FB61F9693A6A41E8EB
:1047B8000023BB61BB69002BE5D1FB68202283F88D
:1047C8004120FB68202283F84220FB68002283F8FE
:1047D800402003230FE0FB681B681A68BB6813407E
:1047E800BA689A420CBF01230023DBB21A46FB7950
:1047F8009A429FD0002318464037BD4680BD00002E
:1048080080B584B000AF78607B681B681B6923F4AF
:1048180040517B68DA687B681B680A431A617B68C9
:104828009A687B681B691A437B685B691343BB60A2
:104838007B681B68DB6823F4B05323F00C037A68A9
:104848001268B9680B43D3607B681B685B6923F403
:1048580040717B689A697B681B680A435A617B6868
:104868001B682C4A934203D1FEF70EF9F86002E068
:10487800FEF7F6F8F860FA6813469B0013449A00AE
:104888001A447B685B689B00B2FBF3F3224AA2FBE5
:1048980003235B091901FA6813469B0013449A0025
:1048A8001A447B685B689B00B2FBF3F21A4BA3FBCC
:1048B80002035B09642000FB03F3D31A1B013233A4
:1048C800154AA2FB03235B0903F0F0031944FA68B5
:1048D80013469B0013449A001A447B685B689B004C
:1048E800B2FBF3F20C4BA3FB02035B09642000FB51
:1048F80003F3D31A1B013233074AA2FB03235B09D4
:1049080003F00F027B681B680A449A6000BF1037E7
:10491800BD4680BD003801401F85EB51002B2DE9B5
:10492800F0471F46BBBF03F100431F4600232D235A
:1049380088B01446129A109D1370149BDDF84CA091
:1049480023F02008B8F1460F05D0B8F1450F00D183
:104958000135022300E0032307AA049206AACDE941
:1049680002A2CDE9003522463B4600F061FFB8F1CE
:10497800470F064602D1119BDB0722D5B8F1460F37
:1049880006EB050910D13378302B0AD10022002319
:1049980020463946FCF770F818B9C5F10105CAF880
:1049A8000050DAF8003099440022002320463946A6
:1049B800FCF762F808B1CDF81C903022079B4B45F4
:1049C80007D33046079B159A9B1B136008B0BDE8B8
:1049D800F087591C07911A70F0E70346F7B50029CC
:1049E80003F8022BB6BF2D222B2249420929427017
:1049F8002ADD0DF1070217460A2691FBF6F59446C3
:104A080006FB151430340CF8014C0C46632C29466F
:104A180002F1FF32F1DC3031ACF1020402F8011C82
:104A28002246411CBA420AD30DF10902A2EB0C023C
:104A3800BC4288BF00221344181A03B0F0BD12F814
:104A4800015B01F8015FEDE7302330318370C170FD
:104A5800031DF1E72DE9F04F91B00C46DDF86880B1
:104A680016461F46054600F0D5FD0368184609930B
:104A7800FBF7D6FB00230E93D8F800300A900733D3
:104A880023F0070303F1080294F81890D4F800B053
:104A9800C8F80020D3E900A852464346C4E91223C7
:104AA80028F000430B934FF0FF3250469C4B0B9974
:104AB800FCF714F870BB4FF0FF325046984B0B9937
:104AC800FBF7EEFF30BB0022002350464146FBF7C0
:104AD800DDFF10B12D2384F84330924A924BB9F18F
:104AE800470F94BF9046984603234FF0000A23616E
:104AF8002BF00403236033462146284600970FAA6B
:104B080000F0D6F9013040F090804FF0FF3011B03E
:104B1800BDE8F08F5246434650464146FBF7DEFF5C
:104B280048B1B8F1000FB8BF2D23804AB8BF84F848
:104B380043307F4BD3E7636809F0DF015A1C42D149
:104B480006236360002206920EAACDE904920DAAFC
:104B58004BF4806303920DF13302CDE901322360F7
:104B6800636852460093284643460B91FFF7D6FEEA
:104B78000B99804647290D9908D1C81C02DB636848
:104B8800994240DDA9F102095FFA89F9B9F1650F87
:104B98001FD84A46013904F150000D91FFF71DFF57
:104BA8000E9A82461318012A236102DC2268D20772
:104BB80001D5013323619DF83330002B9BD02D2381
:104BC80084F8433097E74729BCD1002BBAD1012399
:104BD800B7E7B9F1660F18D1002963680BDD2161C9
:104BE80013B92268D00702D501330B4423614FF073
:104BF800000AA165DFE713B92268D20701D502339D
:104C0800F4E70123F2E74FF067090E9B994205DBB1
:104C180023682161D807EAD54B1CE7E70029CCBFF8
:104C28000122C1F102021344E0E723685A0507D4C0
:104C38002369424631462846B84701302BD164E7FC
:104C4800B9F1650F40F2DD80D4E91201002200239A
:104C5800FBF712FF002833D0012331462846354A96
:104C6800B84701303FF451AFDDE90D239A4202DB2A
:104C78002368D8070FD5DDE9092331462846B84708
:104C880001303FF442AF4FF0000804F11A090E9BBF
:104C9800013B434509DC23689B0700F10481E06878
:104CA8000F9B9842B8BF184631E701234A46314660
:104CB8002846B84701303FF428AF08F10108E6E775
:104CC8000D9B002B38DC012331462846194AB8478A
:104CD80001303FF41AAFDDE90D32134302D12368E6
:104CE800D907D8D5DDE9092331462846B847013028
:104CF8003FF40BAF4FF0000904F11A0A0D9B5B4219
:104D08004B4501DC0E9B94E7012352463146284669
:104D1800B84701303FF4F9AE09F10109EEE700BFE9
:104D2800FFFFEF7F56AB00085AAB00085EAB0008E8
:104D380062AB000866AB00080E9AA36D9A42A8BF42
:104D48001A46002A914637DC4FF0000B29EAE97928
:104D580004F11A02D4F858A0AAEB09035B4533DC26
:104D6800DDE90D239A423BDB2368DA0738D4DDE915
:104D78000D32A2EB0309A2EB0A029145A8BF9146A6
:104D8800B9F1000F34DC4FF0000829EAE97904F1A1
:104D98001A0ADDE90D239B1AA3EB090343457FF7A4
:104DA8007AAF0123524631462846B84701303FF4CE
:104DB800ACAE08F10108ECE71346314642462846F6
:104DC800B8470130C0D1A0E60123314628460B92EE
:104DD800B84701303FF499AE0B9A0BF1010BB9E7D4
:104DE8003146DDE909232846B8470130BFD18CE6B2
:104DF8004B463146284608EB0A02B8470130C2D173
:104E080083E60E9A012A01DCDB0739D501234246E5
:104E180031462846B84701303FF477AEDDE909232B
:104E280031462846B84701303FF46FAED4E9120145
:104E380000220023DDF83890FBF71EFED8B909F1EF
:104E4800FF3308F1010231462846B84701300ED138
:104E58005BE601234A4631462846B84701303FF40D
:104E680054AE08F101080E9B013B4345F1DC534663
:104E780004F15002DEE64FF0000804F11A09F2E7E7
:104E880001234246DFE701234A4631462846B84710
:104E980001303FF43AAE08F10108E3680F995B1A54
:104EA8004345F0DCFBE64FF0000804F11909F4E78C
:104EB8002DE9F047164699468A680B6907469342DA
:104EC800B8BF1346336091F843200C46DDF82080C4
:104ED8000AB1013333602368990642BF336802334D
:104EE8003360256815F0060506D104F1190AE36850
:104EF80032689B1AAB422BDC94F84320131E2268BD
:104F080018BF0123920630D44946384604F14302BB
:104F1800C047013023D02368226903F00603042B1D
:104F280014BF002533684FF0000608BFE56804F198
:104F38001A0408BFED1A54F8123C08BF25EAE575B3
:104F48009342C4BF9B1AED18B5421AD1002008E05D
:104F58000123524649463846C047013003D14FF035
:104F6800FF30BDE8F0870135C1E73020E11881F84E
:104F780043005A1C94F845102244023382F8431027
:104F8800C2E70123224649463846C0470130E6D0E9
:104F98000136D9E72DE9FF470F7E9146782F8046E5
:104FA8000C469A460C9D01F1430207D8622F0AD895
:104FB800002F00F0D580582F00F0C18004F1420581
:104FC80084F842703AE0A7F16303152BF6D801A1E3
:104FD80051F823F03550000849500008C54F000823
:104FE800C54F0008C54F0008C54F000849500008C4
:104FF800C54F0008C54F0008C54F0008C54F000839
:105008004F5100087550000809510008C54F0008A5
:10501800C54F000871510008C54F000875500008B9
:10502800C54F0008C54F0008115100082B681A1D0C
:105038001B682A6004F1420584F842300123A0E08D
:1050480020682B68070603F10401296001D51E6852
:1050580003E04606FBD5B3F90060002E03DA2D23E2
:10506800764284F843300A23594812E02B682068B6
:10507800191D2960050601D51E6802E04106FBD509
:105088001E886F2F0CBF08230A235148002184F87B
:1050980043106568002DA8BF2168A560A4BF21F052
:1050A800040121600EB9002D4BD01546B6FBF3F173
:1050B80003FB1167C75D05F8017D3746BB420E4605
:1050C800F4D9082B0BD12368DE0708D5236961685A
:1050D8009942DEBF302305F8013C05F1FF35521B2C
:1050E80022614B4621464046CDF800A003AAFFF7AF
:1050F800DFFE01304AD14FF0FF3004B0BDE8F08741
:10510800236843F0200323607827324884F84570E9
:10511800236829681F0651F8046B02D45F0648BF4C
:10512800B6B2DF0748BF43F02003296048BF2360B9
:105138001EB9236823F0200323601023A6E7244820
:10514800E4E71546BDE72B682668181D61692860E5
:1051580035061B6801D5196002E07006FBD5198079
:10516800002315462361BCE72B6800211A1D2A601D
:105178001D686268284600F0C4FA08B1401B6060E8
:1051880063682361002384F84330AAE72A46494626
:1051980040462369D0470130ADD023689B0713D41C
:1051A800E068039B9842B8BF1846A6E70123324639
:1051B80049464046D04701309DD00135E368039900
:1051C8005B1AAB42F2DCEBE7002504F11906F5E7C0
:1051D80068AB000879AB0008002310B50446C0E9A5
:1051E8000033C0E90433836081814366C2818361EF
:1051F800194608225C3000F005FA0D4B2462636200
:105208000C4BA3620C4BE3620C4B23630C4B9C428C
:1052180006D003F16802944202D0D0339C4205D1F3
:1052280004F15800BDE8104000F068BA10BD00BF96
:105238005D5400087F540008B7540008DB54000888
:10524800F8020020024A0349034800F069B800BF89
:105258000C0000209D7000081800002041680C4BCD
:1052680010B59942044601D001F014FFA168094B1A
:10527800994202D0204601F00DFFE168064B9942A1
:1052880004D02046BDE8104001F004BF10BD00BFA7
:10529800F802002060030020C803002010B50B4B63
:1052A8000B4C0C4A20461A6004210022FFF794FF99
:1052B80004F1680001220921FFF78EFF04F1D000F4
:1052C8000222BDE810401221FFF786BF30040020FB
:1052D800F80200204D520008014800F010BA00BF43
:1052E80039040020014800F00BBA00BF390400203F
:1052F80010B50446FFF7F0FF236A1BB1BDE8104064
:10530800FFF7F0BF044B2362044B1B68002BF5D159
:10531800FFF7C4FFF2E700BF655200083004002021
:105328002DE9F8430746884614460026D4E9019536
:10533800B9F1010905D52468002CF7D13046BDE83C
:10534800F883AB89012B07D9B5F90E30013303D0A7
:1053580029463846C04706436835E9E7036A70B509
:1053680005460E4684680BB9FFF7C2FF636EDB077C
:1053780005D4A389980502D4A06D00F0C0F9A389CB
:10538800190713D523698BB1013EA36816F8011FCD
:10539800013BA360E9B9002B2EDA22460A212846F0
:1053A80000F09BF8013007D00A2507E0214628467F
:1053B80000F0D0F80028E7D04FF0FF35636EDA0729
:1053C80005D4A3899B0502D4A06D00F099F928465D
:1053D80070BD002B04DAA2699A4206DC0A2904D0BF
:1053E80023685A1C22601970CFE72246284600F02D
:1053F80074F80130C9D1DFE70A2523685A1C2260F6
:105408001D70DBE7024B01461868FFF7A7BF00BF16
:10541800640000200EB46FF0004100B59CB01DABD5
:1054280002900690079104910848094953F8042B03
:105438000591006802A9019301F0ACFC0022029BCF
:105448001A701CB05DF804EB03B0704764000020CC
:105458000802FFFF10B50C46B1F90E1000F000F974
:105468000028ABBF636DA3891B1823F48053ACBF1E
:105478006365A38110BD2DE9F0411F468B89054660
:10548800DB050C46164605D502230022B1F90E109D
:1054980000F0D4F8A389324623F48053A381284628
:1054A8003B46B4F90E10BDE8F04100F0EBB810B57A
:1054B8000C46B1F90E1000F0C1F8431CA38915BFC2
:1054C800606523F4805343F48053A38118BFA381FC
:1054D80010BDB1F90E1000F0A1B8F8B50E4614468B
:1054E800054618B1036A0BB9FFF702FFA369A36069
:1054F800A3891A0725D523691BB323682269F6B245
:10550800981A63693746834204DC2146284601F02D
:10551800C1FDE0B9A368013BA36023685A1C22605F
:105528001E706269431C9A4204D0A389DB0706D522
:105538000A2E04D12146284601F0ACFD38B9384678
:10554800F8BD2146284600F005F80028D5D04FF0D0
:10555800FF37F4E738B52A4B054618680C4618B1EA
:10556800036A0BB9FFF7C4FEA389B4F90C20180726
:1055780022D4D90607D409232B6042F040034FF008
:10558800FF30A38134E0580712D5616B41B104F1B3
:105598004403994202D0284600F02EFF002363639B
:1055A800A38923F02403A381002363602369236074
:1055B800A38943F00803A38123694BB9A38903F4A2
:1055C8002073B3F5007F03D02146284601F0AFFDD4
:1055D800A089B4F90C2010F001030AD00023A360BD
:1055E80063695B42A361236943B910F08000C4D1A9
:1055F80038BD810758BF6369A360F4E70020F7E767
:105608006400002003460244934200D1704703F827
:10561800011BF9E7004870475801002038B50023FE
:10562800054D044608462B60FBF74AFE431C02D191
:105638002B6803B1236038BD3404002038B5044614
:10564800084611460022054D2A601A46FBF75CFE03
:10565800431C02D12B6803B1236038BD34040020F9
:1056680038B50446084611460022054D2A601A46F8
:10567800FBF7EDFD431C02D12B6803B1236038BD55
:105688003404002038B50446084611460022054D6A
:105698002A601A46FBF7F8FD431C02D12B6803B1B8
:1056A800236038BD34040020014B1868704700BFE0
:1056B8006400002070B500260C4D0D4C641BA4102E
:1056C800A64209D101F0F0FF00260A4D0A4C641BDE
:1056D800A410A64205D170BD55F8043B9847013681
:1056E800EEE755F8043B98470136F2E7C4AE0008E8
:1056F800C4AE0008C4AE0008C8AE000870477047C2
:105708007047034610B5C9B202449342184601D106
:10571800002003E0047801338C42F6D110BD2DE956
:10572800F74F03690C690746A3427FDB013C00F190
:10573800140501F1140805EB8403019358F824308B
:1057480055F8242001339A42B2FBF3F64FEA840B52
:1057580008EB840931D34FF0000E4046AC46F246C0
:1057680050F8042B93B206FB03E34FEA124E1A0CCF
:105778009BB206FB0E22AAEB0303DCF800A04FEA5B
:10578800124E1FFA8AFA5344DCF800A092B2C2EB18
:105798001A4202EB23429BB243EA024381454FEA95
:1057A800224A4CF8043BDBD255F80B302BB9019B4D
:1057B800043B9D421A462DD33C61384601F092F9CC
:1057C800002823DB29460020013658F8042BD1F89D
:1057D80000C093B2C31A120C1FFA8CF00344C2EB38
:1057E8001C4202EB23429BB243EA0243C1454FEA03
:1057F800224041F8043BE8D255F8242005EB840305
:1058080022B9043B9D421A460AD33C61304603B094
:10581800BDE8F08F1268043B002ACDD1013CC8E7EF
:105828001268043B002AF0D1013CEBE70020EEE7C8
:105838002DE9F04F16461F46C46999B00546CDE9D3
:105848000467DDF8948074B9102000F01DFE02464C
:10585800E86120B9EF21AC4BAC4801F0FFFCC0E98E
:1058680001440460C460EB69196851B15A680123A6
:1058780093404A608B60284600F0FAFE0022EB69EC
:105888001A603B1EAFBF0023012223F0004305939B
:10589800A8BFC8F80030DDF814909D4BB8BFC8F811
:1058A800002033EA090319D142F20F73249A1360D6
:1058B800C9F31303334300F08985269B53B9954BED
:1058C80023E0954B03930833269A1360039819B085
:1058D800BDE8F08F8F4B03930333F5E7DDE904341C
:1058E800CDE90C34DDE90C0100220023FBF7C4F8F4
:1058F800804660B10123249A1360269B002B00F098
:105908006285864B269A1360013B0393DEE716AB4C
:10591800019317AB00932846DDE90C2301F08AF9BF
:10592800C9F30A548246002C7ED0DDE90C010D9B98
:10593800A4F2FF34C3F3130343F07F5343F440133B
:10594800CDF84C8019460022754BFAF775FC68A310
:10595800D3E90023FAF728FE67A3D3E90023FAF76F
:105968006DFC064620460F46FAF7B4FD64A3D3E95A
:105978000023FAF719FE02460B4630463946FAF775
:105988005DFC06460F46FBF7BFF80022834600235E
:1059980030463946FBF77AF848B15846FAF79AFD87
:1059A80032463B46FBF768F808B90BF1FF3BBBF101
:1059B800160F57D8DDE90C015A4B03EBCB03D3E99B
:1059C8000023FBF763F800284ED000230BF1FF3BC0
:1059D8000F93169B1B1B5A1E46BFC3F101090023D8
:1059E8004FF00009099248BF0993BBF1000F3DDB56
:1059F800099BCDF838B05B44099300230A93229B96
:105A0800092B67D8052BC4BF043B2293229BC8BF30
:105A18000024A3F10203D8BF0124032B00F28680DF
:105A2800DFE803F02C393756DDE916431C4404F24D
:105A38003243202BC1BFC3F1400309FA03F904F232
:105A4800124326FA03F3D6BFC3F1200349EA030041
:105A580006FA03F0FAF72EFD0122A1F1F873013CD2
:105A680013926FE70123B3E70F90B2E7CBF100037E
:105A78000A930023A9EB0B090E93C0E700230B93AD
:105A8800239B002B55DC01231A4606930893239287
:105A98000BE00123F3E700230B93239B5B4406935E
:105AA8000133012B0893B8BF012300210422E869C0
:105AB80002F114069E4240D94160284600F098FD44
:105AC800039000283CD1024640F2AF11164BC3E6C2
