:020000040800F2
:1000000070070020F90100087D210008051700088D
:1000100079210008B50200089121000800000000C5
:100020000000000000000000000000008521000822
:10003000B9020008000000008121000889210008A1
:10004000130200081302000813020008130200083C
:10005000130200081302000813020008130200082C
:10006000130200081302000813020008130200081C
:10007000130200081302000813020008130200080C
:1000800013020008130200081302000813020008FC
:1000900013020008130200081302000813020008EC
:1000A00013020008130200081302000813020008DC
:1000B00013020008130200081302000813020008CC
:1000C00013020008130200081302000813020008BC
:1000D00013020008130200081302000813020008AC
:1000E000130200081302000813020008130200089C
:1000F000130200081302000813020008130200088C
:10010000130200081302000813020008130200087B
:10011000130200081302000813020008130200086B
:10012000130200081302000813020008130200085B
:1001300000F002F800F050F814A696E8000CB24463
:10014000B344DA4501D100F047F8BAE80F000FA632
:1001500096E83000A5EB040504EB0607AAEB0704BC
:10016000A7F101074FEA15154FEA3414A4F1010471
:10017000AC4201D300F030F813F0010F18BFFB1AA6
:1001800043F0010300F001F8DBE71847F4540000E6
:1001900014550000103A24BF78C878C1FAD8520725
:1001A00024BF30C830C144BF04680C6070470000F1
:1001B000704700000023002400250026103A28BFC5
:1001C00078C1FBD8520728BF30C148BF0B607047C9
:1001D0001FB51FBD10B510BD00F031F81146FFF777
:1001E000F7FF01F0D7FF00F04FF803B4FFF7F2FF7D
:1001F00003BC00F057F80000094880470948004751
:10020000FEE7FEE7FEE7FEE7FEE7FEE7FEE7FEE7C6
:10021000FEE7FEE704480549054A064B7047000023
:100220008D210008310100087001002070070020B6
:1002300070030020700300207047704770477546B8
:1002400000F02CF8AE4605006946534620F0070042
:10025000854618B020B5FFF7DDFFBDE820404FF020
:1002600000064FF000074FF000084FF0000BAC46BF
:10027000ACE8C009ACE8C009ACE8C009ACE8C0090A
:1002800021F007018D46704710B50446AFF300809A
:100290002046BDE81040FFF7A8BF000000487047A7
:1002A0001000002001491820ABBEFEE72600020026
:1002B00070470000FEE7000070470000EFF3108079
:1002C00072B600BFFEE70000B0B5044600F010F9BA
:1002D000054640F20000C2F200000078611C18BF21
:1002E000044400BF00F004F9401BA042FAD3B0BDA3
:1002F0002DE9F04F82B00E68002E00F0EF80A0F1E3
:100300008042A2F58432870547EA922241F60047EF
:1003100040F2004EC4F201070625C4F2010EB842B5
:1003200008BF052500244FF001080F234FF0000AF5
:100330004FF0000B052A38BF1546009509E000BFB5
:100340000E680AF1010A36FA0AF204F1040400F018
:10035000C58008FA0AFC16EA0C09F1D04E684FF67F
:10036000FF72C1F21002964212DC122E56D8DFE85C
:1003700006F0350B45495555555555555555555567
:100380005555554D510000BFD1F80CB046E000BFA7
:100390004FF6FF72C1F2210296420FDC0022C1F239
:1003A000110296421AD00022C1F21202964215D0D2
:1003B0000022C1F22102964210D02FE00022C1F2A9
:1003C000220296420AD00022C1F23102964205D0A2
:1003D0000022C1F23202964220D100BF8A684AB19F
:1003E000012A14BFC0F814C0C0F810C04FF0080BA9
:1003F00014E000BF4FF0040B10E000BFCA6802F128
:10040000080B0BE04FF0000B08E000BFCA6802F1D8
:10041000040B03E0CA6802F10C0B00BF224606463B
:10042000B9F5807F24BF203A0436376803FA02F515
:10043000AF430BFA02F23A433260CA79D2067FF533
:100440007FAF41F21807C4F202073A684FF608433B
:1004500042F001023A603A68CFF6FF7302F00102FF
:100460000192019A2AF0030272440F25D75804F032
:100470000C06B540AF43009D05FA06F63743D7504A
:100480004E6840F20C45F202DEF8082054BF22EA22
:10049000090242EA0902C4F20105CEF808202A68DE
:1004A000B70254BF22EA090242EA09022A60DEF8D2
:1004B0000420B70354BF22EA090242EA0902CEF837
:1004C00004200F23DEF80020F70354BF22EA0902BC
:1004D00042EA0902CEF8002032E700BF02B0BDE8D0
:1004E000F08F0000002A08BF090401617047000076
:1004F00040F26C10C2F200000068704740F2000049
:1005000040F26C11C2F20000C2F2000100780A68E9
:10051000104408607047000080B542F20000C4F249
:100520000200016841F010010160032000F07AF838
:100530000F2000F005F800F027F8002080BD000033
:1005400070B540F20006C2F2000640F208013278AF
:10055000C2F200014FF47A730968B3FBF2F2044669
:10056000B1FBF2F1084600F0D9FD0F2C4FF0010568
:1005700008D838B94FF0FF3021460022002500F09E
:1005800025F87460284670BD82B041F21800C4F2AC
:1005900002000168042241F001010160016801F0DC
:1005A000010101910199416841F080514160406829
:1005B00000F08050009000980420C4F2010001680F
:1005C00062F31A61016002B07047000010B54EF688
:1005D0000C5CCEF2000CDCF80030C3F3022E8EF07F
:1005E0000704042C28BF0424BEF103034FF0FF3E90
:1005F0000EFA04F438BF0023A14399400EFA03F326
:100600009A43114300F00F0200F160430901043ADC
:1006100003F564436244002848BF02F10C031970DB
:1006200010BD00004EF60C51CEF200010A684FF6E4
:10063000FF031A4060F30A2242F0806040F0FD7030
:10064000086070472020C4F20E200121016070472D
:10065000411E0F294FF000003DD8DFE801F00B2BC1
:100660003C093C3C3C093C3C3C3C3C3C3C3D00BFE8
:1006700000F002BA41F20400C4F20200C16940F283
:1006800002320A40B2F5817F04BF4FF40040704748
:1006900001F44071B1F5407F50D0B1F5007F1CBF2F
:1006A00000207047006A49F64041800701EAE07087
:1006B000704700BF80B500F0CBF941F20401C4F2ED
:1006C000020109680222C1F3813102EB4101B0FB52
:1006D000F1F0BDE88040704741F20401C4F202012C
:1006E0000A6851F8040CC0015CBF00207047C2F3D7
:1006F000834016A3185CD20306D440F60012C0F261
:100700003D0250430CE000BF0A6814A3C2F340420C
:100710009A5C41F20023C0F27A03B3FBF2F2504339
:100720000968490248BF70474AF6AB214000CAF643
:10073000AA21A0FB01014808704700BF50F8040C33
:100740004FF22441800301EAE07070470203040580
:10075000060708090A0B0C0D0E0F1010010200000D
:100760002DE9F04182B00446007841F21C06C00732
:10077000C4F202064AD030685FEAC00808D4306884
:1007800040F080503060306800F080500190019857
:1007900047F20007C4F200073868C00512D4386871
:1007A00040F480703860FFF7A3FE05463868C00546
:1007B00008D4FFF79DFE401B6428F7D9032002B040
:1007C000BDE8F081706810F4407012D0616801F4E7
:1007D000407188420DD0706840F24042C4F242221B
:1007E000012320F4407113600023C007136071607F
:1007F00026D17068616820F440700843B8F1000F9A
:10080000706003D4306820F0805030602068810729
:1008100007D556F8181CA26821F44041114346F848
:10082000181CC00607D556F8180C616920F4800022
:10083000084346F8180C002002B0BDE8F08100BF64
:10084000FFF756FE054641F2883700BF7068800703
:10085000CFD4FFF74DFE401BB8424FF00300F5D94F
:10086000EAE70000002804BF012070472DE9F043AB
:1008700081B042F20008C4F202080446D8F8000031
:100880000D4600F0070088420CD2D8F8000020F096
:1008900007002843C8F80000D8F8000000F007005F
:1008A000A8426CD1206841F204098107C4F2020910
:1008B00017D5410705D5D9F8001041F4E061C9F812
:1008C0000010010705D5D9F8001041F46051C9F8AE
:1008D0000010D9F80010A26821F0F0011143C9F806
:1008E0000010C00742D1D8F8000000F00700A8426D
:1008F0000CD9D8F8000020F007002843C8F8000001
:10090000D8F8000000F00700A84238D1206841075D
:1009100007D5D9F80010E26821F4E0611143C9F865
:100920000010000708D5D9F80000216920F46050B4
:1009300040EAC100C9F80000D9F8002002F00C001C
:10094000082841F20020C0F27A0051D145F27063CC
:10095000C2F38341C0F60003595CD2033CD440F695
:100960000010C0F23D00484342E000BF606802282A
:100970000AD001282AD159F8041C890308D401207F
:1009800001B0BDE8F08300BF59F8041C8901F6D519
:10099000D9F8001021F003010843C9F80000FFF75F
:1009A000A7FD064641F28837D9F80000616800F0DB
:1009B0000C00B0EB810F96D0FFF79AFD801BB84278
:1009C000F2D9032001B0BDE8F08300BF59F8041C40
:1009D0008907D4D5DCE700BFD9F8002042F27A239A
:1009E000C2F34042C0F600039A5C4843B0FBF2F009
:1009F000D9F8001042F26222C1F30311C0F60002DE
:100A0000515C40F2080220FA01F140F20400C2F207
:100A100000000068C2F200021160FFF791FD0020A3
:100A200001B0BDE8F083000040F2080041F204018B
:100A3000C2F20000C4F202010068096842F27222A8
:100A4000C1F30221C0F60002515CC84070470000AB
:100A500040F2080041F20401C2F20000C4F20201B7
:100A60000068096842F27222C1F3C221C0F6000296
:100A7000515CC8407047000041F2040CC4F2020C03
:100A8000DCF8003003F00C00082841F20020C0F22E
:100A90007A0018BF704745F27061C3F38342C0F615
:100AA00000018A5CD90305D440F60010C0F23D0075
:100AB00050437047DCF8001042F27A23C1F3404102
:100AC000C0F60003595C5043B0FBF1F070470000E2
:100AD000002804BF012070472DE9F04182B0044690
:100AE000007841F20006C007C4F202060CD070681C
:100AF00000F00C00042840F081803068800303D5AA
:100B00006068002800F04E81207880071BD570684F
:100B100010F00C0F09D0706800F00C00082840F0AD
:100B20008B807068C00300F187803068800703D530
:100B30002069012840F036813068616920F0F800B2
:100B400040EAC10030602078000713D420784007C5
:100B50002CD4E569002D00F02081706800F00C00B5
:100B6000082840F0AF80012D40F00C81012002B038
:100B7000BDE8F081A069002800F08C800020C4F25C
:100B800042200121C0F88014FFF7B2FC054600BFE7
:100B9000706A800700F1BA80FFF7AAFC401B0228A8
:100BA000F6D9032002B0BDE8F08100BFF0695FEA2A
:100BB000C00808D4F06940F08050F061F06900F09E
:100BC00080500090009847F20007C4F20007386890
:100BD000C0054DD4386840F480703860FFF788FC59
:100BE000054600BF3868C00542D4FFF781FC401BB2
:100BF0006428F7D9032002B0BDE8F081706800F0E6
:100C00000C00082803D17068C0033FF576AF606818
:100C1000002800F00981B0F5A02F00F01D81B0F58B
:100C2000803F00F01D81306820F4803030603068F3
:100C300020F4802017E100BF2069002840F2000066
:100C4000C4F2422000F08C8001210160FFF750FCCB
:100C5000054600BF306880073FF56EAFFFF748FCE0
:100C6000401B0228F6D9032002B0BDE8F08100BF86
:100C7000E068002800F09A80052800F0B180012883
:100C800000F0B280306A20F001003062306A20F05B
:100C90000400ACE00020C4F242200021C0F880141F
:100CA000FFF726FC054600BF706A80077FF54EAF50
:100CB000FFF71EFC401B0228F6D9032002B0BDE856
:100CC000F08100BF0027C4F2422700203866FFF7FA
:100CD0000FFC022D05460DD13068800140F1D68011
:100CE000FFF706FC401B02284FF00300F4D902B0C6
:100CF000BDE8F081306880014FD5FFF7F9FB401B5C
:100D000002284FF00300F5D9F1E700BF40F20800D8
:100D1000C2F20000006844F6D351C1F26201A0FBA8
:100D20000101480A019000BF00BF0198411E002840
:100D300001913FF40BAF00BF0198411E00280191C3
:100D40003FF404AF00BF0198411E002801913FF419
:100D5000FDAE00BF0198411E00280191E4D1F5E6E7
:100D600000210160FFF7C4FB054600BF3068800723
:100D70007FF5E9AEFFF7BCFB401B02284FF00300F4
:100D8000F4D9B4E77068216A00F480328A4209D14C
:100D9000616A00F47010884204D1002002B0BDE8FE
:100DA000F08100BF012002B0BDE8F081306A20F080
:100DB00001003062306A20F004003062FFF798FBD7
:100DC000054641F2883700BF306A800722D5FFF719
:100DD0008FFB401BB8424FF00300F5D987E700BFF7
:100DE000306A40F004003062306A40F00100306246
:100DF000FFF77EFB054641F2883700BF306A800767
:100E000008D4FFF775FB401BB842F7D9032002B0A6
:100E1000BDE8F081B8F1000F3FF59BAEF06920F01E
:100E20008050F06195E600BF306820F4803030607B
:100E3000306820F480203060FFF75AFB054600BF81
:100E4000306880037FF560AEFFF752FB401B6428DB
:100E50004FF00300F4D94AE7306840F48020306056
:100E6000306840F480303060FFF742FB054600BF39
:100E7000306880033FF548AEFFF73AFB401B64281B
:100E8000F6D9032002B0BDE8F08100BF206AB0F5BA
:100E9000803F05D17168A26821F40031114371606F
:100EA0007168626A21F47411114308437060012073
:100EB0003866FFF71DFB0446306880013FF56DAFD3
:100EC000FFF716FB001B02284FF00300F4D90EE7D2
:100ED00070B5002866D00446407C20B900202074FC
:100EE000204600F06FF8022060742068416821F00D
:100EF00008014160FFF7FCFA064600BF206845681C
:100F0000FFF7F6FA290705460ED4A81BB0F57A7F3D
:100F1000F4D9012504206074284670BDFFF7E8FA73
:100F2000401BB0F57A7FF4D8216848688006F5D573
:100F3000486846F62C4240F0100048604868C4F209
:100F4000000220F007004860A06818B1536823F041
:100F500001035360136823F46073184310606068E2
:100F6000421C06D101200125FFF772FB30B3216836
:100F70000138C0F3034280B28A60C860486820F03C
:100F800010004860FFF7B4FA054600BF20684068CB
:100F9000800609D4FFF7ACFA401BB0F57A7FF5D98B
:100FA000B7E700BF012070BD40F201100025A4F892
:100FB0000D000120E5736074284670BD0420607444
:100FC000284670BD006842F60001C4F20001884264
:100FD00018BF704780B582B0FFF734FB41F21C00A8
:100FE000C4F20200016841F0006101600068012163
:100FF00000F000600190019840F23C40C4F24220B1
:10100000016002B0BDE880407047000070B538B1A3
:101010000446406A30B10020206104F1140007E06A
:10102000012070BD6068B0F5827F03D004F11C0020
:10103000002101600026A66294F8510020B92046E4
:1010400084F8506000F038F8022084F8510094E8E9
:10105000071001F48271036802F4044223F0400394
:101060000360236911440CF40062114403F002028E
:101070006369114403F00102A369E569114403F4B3
:101080000072114405F03802256A114405F080020F
:10109000A56A114305F4005211430160042101EADD
:1010A00013414160C16921F40061C161012066659D
:1010B00084F85100304670BD80B586B0014640F6D8
:1010C0000000C4F20100096800F520530022994293
:1010D000049201D006B080BD41F21801C4F20201B1
:1010E0000A6842F480520A600A6802F4805201924F
:1010F000019A0A6842F004020A60096801F00401DA
:1011000001910199A02102910221039103210591EE
:1011100002A9FFF7EDF806B080BD0000411E0020D7
:10112000B0EB116F1CBF012070474EF21002CEF2DF
:10113000000251604EF62351CEF20001F0230B70F5
:10114000072190601160704790F83C20012A4FF011
:10115000020242D010B580F83D200268D2F804E0C7
:10116000D2F808C00C682EF07003234340F6FF3419
:10117000C4F20004A242536010DCB2F1804F1FD0D1
:1011800040F20043C4F200039A4219D040F6000333
:10119000C4F200039A4213D017E000BF40F60043A8
:1011A000C4F200039A420BD043F20043C4F201039D
:1011B0009A4205D042F60043C4F201039A4204D198
:1011C00049682CF08003194391600121002280F8C6
:1011D0003D1080F83C20BDE81040104670470000EC
:1011E00090F83C30012B04BF022070474FEAB20256
:1011F000032A00F225812DE9F041DFE802F0034BDC
:1012000095DF00BF036843F200461D6A1A6A25F0A5
:10121000020522F001021A621A46D3F804C052F8FD
:10122000188F8F68D1F800E0C4F20106B34245EA96
:10123000070505D042F60047C4F20107BB4205D1BD
:10124000CF6825F00C0527F004073D43B34205D0D5
:1012500042F60046C4F20106B34206D1D1E9056761
:101260002CF44074264346EA070C28F0730444EA41
:101270000E07C3F804C09F614F6809695F631D6270
:101280009F6947F008079F619F6927F004079F61E6
:10129000CAE000BF036843F200461D6A1A6A25F0DF
:1012A000200522F010021A621A46D3F804C052F840
:1012B000188F8F68D1F800E0C4F20106B34245EA06
:1012C000071505D042F60047C4F20107BB4207D11B
:1012D000CF686FF0400425F0C00504EA07142543E9
:1012E000B34205D042F60044C4F20104A34206D141
:1012F000D1E905462CF44067264347EA860C28F4DA
:10130000E64444EA0E27C3F804C09F614F680969A8
:101310009F631D629F6947F400679F619F6927F47F
:1013200080679F617FE000BF036843F200461D6A4B
:101330001A6A25F4007522F480721A621A46D3F8EC
:1013400004C052F81CEF8F68D1F80080C4F2010687
:10135000B34245EA072505D042F60047C4F201072B
:10136000BB4208D1CF6840F2FF443F0225F44065FC
:1013700027EA04042543B34205D042F60044C4F2F0
:101380000104A34206D1D1E905462CF44057264377
:1013900047EA061C2EF0730747EA0807C3F804C0A3
:1013A000DF614F680969DF631D62DF6947F0080785
:1013B000DF61DF6927F00407DF6135E0036843F28E
:1013C0000047D3F820C01A6AC4F2010722F4805201
:1013D0001A621A465C6852F81C5FD1F800E08E6809
:1013E000BB4205D042F60047C4F20107BB4204D11C
:1013F0004F6924F4804444EA87142CF4005747EAE8
:10140000063725F4E64646EA0E265C60DE614E6845
:1014100009691E641F62DF6947F40067DF61DF69E5
:1014200027F48067DF610902136819431160002106
:10143000BDE8F041002280F83C200846704700BF1C
:101440000121002280F83C2008467047002804BF94
:101450000120704710B5044690F83D0028B90020DF
:1014600084F83C00204600F085F8022084F83D0016
:10147000206840F6FF330268C4F2000343F2004CD8
:101480009842C4F2010C21DCB0F1804F2CD040F224
:101490000041C4F20001884226D040F60001C4F2A7
:1014A0000001884220D0984224DCB0F1804F2FD038
:1014B00040F20041C4F20001884229D040F6000108
:1014C000C4F20001884223D026E000BF40F600416C
:1014D000C4F20001884207D0604505D042F60041C1
:1014E000C4F201018842DED1A16822F070020A43F1
:1014F0009842DADD40F60041C4F20001884207D08C
:10150000604505D042F60041C4F20101884203D192
:10151000216922F440720A43A36922F08001D4F8C1
:1015200004E0E268194360450160C262C0F828E047
:1015300005D042F60041C4F20101884201D161693F
:10154000016301214161002084F8461084F83E10B7
:1015500084F83F1084F8401084F8411084F8421059
:1015600084F8431084F8441084F8451084F83D1042
:1015700010BD0000006840F20041C4F20001884242
:1015800018BF704781B041F21C00C4F2020001682C
:1015900041F002010160006800F002000090009834
:1015A00001B07047002804BF0120704710B5044601
:1015B00090F8410028B9002084F84000204600F04F
:1015C00063F8242084F841002068D4E90212C3683B
:1015D00023F40053C360036923F440531A430261A8
:1015E000D4E904231143C268194341F20C639A43BE
:1015F0001143C1604169A26921F44071114343F66E
:101600000002C4F201029042416103D0FFF70CFADC
:1016100002E000BFFFF71CFAD4E900231921484378
:101620009900B0FBF1F048F21F5CC5F2EB1CA0FB87
:101630000C314FF69C734909C0F6FF7301FB0300A0
:10164000322303EB0010A0FB0C03F02000EA531040
:1016500000EB0110C3F3431108449060106920218E
:1016600020F490401061506920F02A005061D06849
:1016700040F40050D0600020606484F8411084F889
:101680004210606310BD000070B586B040F60004E3
:10169000C4F20104006804F5405100268842049613
:1016A00002D006B070BD00BF41F21800C4F20200C3
:1016B000016802AD41F480410160016801F480419C
:1016C00001910199016841F0040101600068294617
:1016D00000F00400019001984FF400700290022085
:1016E0000390032005902046FEF702FE4FF4806031
:1016F000CDE90206204629460496FEF7F9FD06B01C
:1017000070BD0000FEE700002DE9F04141F6000445
:10171000C4F2010417460E46054620460821002261
:101720009846FEF7DFFE2A2000F08AFB20460821BB
:101730000122FEF7D7FE280A00F082FBE8B200F093
:101740007FFB380A00F07CFBF8B200F079FB204602
:1017500008210022FEF7C6FE2B2000F071FB204678
:1017600008210122FEF7BEFE300A00F069FBF0B24C
:1017700000F066FB4FEA182000F062FB5FFA88F089
:1017800000F05EFB204608210022FEF7ABFE2C2075
:1017900000F056FB204608210122BDE8F041FEF78B
:1017A000A1BE000010B541F60004C4F201042046B9
:1017B00004210022FEF796FE6420FEF785FD2046F8
:1017C00004210122FEF78EFE6420FEF77DFD2046F7
:1017D00020210122FEF786FE6420FEF775FD2046DB
:1017E00008210022FEF77EFE112000F029FB204692
:1017F00008210122FEF776FE7820FEF765FD2046DF
:1018000008210022FEF76EFE362000F019FB20466C
:1018100008210122FEF766FE002000F011FB2046A1
:1018200008210022FEF75EFE3A2000F009FB204668
:1018300008210122FEF756FE052000F001FB20469C
:1018400008210022FEF74EFEB22000F0F9FA2046F1
:1018500008210122FEF746FE0C2000F0F1FA0C20D0
:1018600000F0EEFA002000F0EBFA332000F0E8FA86
:10187000332000F0E5FA204608210022FEF732FE70
:10188000B72000F0DDFA204608210122FEF72AFEEB
:10189000352000F0D5FA204608210022FEF722FE6E
:1018A000BB2000F0CDFA204608210122FEF71AFEE7
:1018B000322000F0C5FA204608210022FEF712FE71
:1018C000C22000F0BDFA204608210122FEF70AFEE0
:1018D000012000F0B5FA204608210022FEF702FEA2
:1018E000C32000F0ADFA204608210122FEF7FAFDE0
:1018F000152000F0A5FA204608210022FEF7F2FD8F
:10190000C42000F09DFA204608210122FEF7EAFDDE
:10191000202000F095FA204608210022FEF7E2FD83
:10192000C62000F08DFA204608210122FEF7DAFDDC
:101930000F2000F085FA204608210022FEF7D2FD94
:10194000D02000F07DFA204608210122FEF7CAFDD2
:10195000A42000F075FAA12000F072FA20460821B8
:101960000022FEF7BFFDE02000F06AFA20460821C1
:101970000122FEF7B7FDD02000F062FA082000F047
:101980005FFA0E2000F05CFA092000F059FA0920F5
:1019900000F056FA052000F053FA312000F050FA1A
:1019A000332000F04DFA482000F04AFA172000F0EA
:1019B00047FA142000F044FA152000F041FA3120D3
:1019C00000F03EFA342000F03BFA204608210022C5
:1019D000FEF788FDE12000F033FA204608210122BD
:1019E000FEF780FDD02000F02BFA082000F028FA46
:1019F0000E2000F025FA092000F022FA092000F05C
:101A00001FFA152000F01CFA312000F019FA3320DB
:101A100000F016FA482000F013FA172000F010FA30
:101A2000142000F00DFA152000F00AFA312000F021
:101A300007FA342000F004FA204608210022FEF7BD
:101A400051FD212000F0FCF9204608210122FEF77B
:101A500049FD204608210022FEF744FD292000F020
:101A6000EFF9204608210122BDE81040FEF73ABDFB
:101A70002DE9F04F85B00F9E81464FEA560B300995
:101A800004931546884601215FEA4B7218BF01EBAB
:101A9000161000FB06F409EB560008EB06010138AE
:101AA000013982B28BB248464146FFF72DFE002C29
:101AB00000F09581A6F10C00C0F3850040EA861085
:101AC000C2B2052A00F28B810120904010F02B0F4A
:101AD00000F085811099A5F12000002943F6B06E31
:101AE00042F27C2342F2F06C42F6E041C0B2C0F612
:101AF000000EC0F60003C0F6000CC0F60001039211
:101B000000F0C48000EB400603EB860701EB0613F0
:101B1000002502930CEB00130EEB80104E46019350
:101B2000009000BF032A05D0012A05D038462AB10B
:101B3000009802E0029800E00198284490F800A084
:101B40005FEACA700AD0B0B21FFA88F102460B46AB
:101B5000FFF7DAFD049800F069F9039A701C80B26F
:101B6000A0EB0901594500F087805FEA8A7109D529
:101B70001FFA88F102460B46FFF7C6FD049800F0F5
:101B800055F9039AB01C80B2A0EB0901594573D0F6
:101B90005FEA4A7109D51FFA88F102460B46FFF742
:101BA000B3FD049800F042F9039AF01C80B2A0EB58
:101BB0000901594560D05FEA0A7109D51FFA88F119
:101BC00002460B46FFF7A0FD049800F02FF9039A98
:101BD000301D80B2A0EB090159454DD05FEACA61C2
:101BE00009D51FFA88F102460B46FFF78DFD0498D0
:101BF00000F01CF9039A701D80B2A0EB0901594551
:101C00003AD05FEA8A6109D51FFA88F102460B468D
:101C1000FFF77AFD049800F009F9039AB01D80B22D
:101C2000A0EB0901594527D05FEA4A6109D51FFA9F
:101C300088F102460B46FFF767FD049800F0F6F8BE
:101C4000039AF01D80B2A0EB0901594514D04FFA58
:101C50008AF1B1F1FF3F09DC1FFA88F102460B4619
:101C6000FFF752FD049800F0E1F8039A0836B0B28D
:101C7000A0EB0900584502D108F101084E46013594
:101C8000013C07F101077FF44DAFA8E0DDF838A073
:101C900000EB40010EEB80170026029103EB81015F
:101CA0000CEB00104FF000090191009072B1012A75
:101CB0000ED0DDF81080032A38460DD142F6E04000
:101CC000029AC0F6000000EB021004E0019800E068
:101CD0000098DDF8108030440578E807404608BFDA
:101CE000504600F0A3F809F10100C0B2B0FBFBF1CF
:101CF00001FB1B00002869D0A807404658BF50468A
:101D000000F094F809F10200C0B2B0FBFBF101FB56
:101D10001B0000285AD06807404658BF504600F0C4
:101D200085F809F10300C0B2B0FBFBF101FB1B0019
:101D300000284BD02807404658BF504600F076F8A0
:101D400009F10400C0B2B0FBFBF101FB1B00E8B3DA
:101D5000E806404658BF504600F068F809F1050013
:101D6000C0B2B0FBFBF101FB1B0078B3A8064046F4
:101D700058BF504600F05AF809F10600C0B2B0FB57
:101D8000FBF101FB1B0008B36806404658BF5046F4
:101D900000F04CF809F10700C0B2B0FBFBF101FB09
:101DA0001B0098B168B2002858BFD046404609F1E0
:101DB000080500F03BF8E8B2B0FBFBF101FB1B09A2
:101DC000B9F1000F18BFA94602E000BF4FF00009AB
:101DD000039A0136013C07F101077FF467AF05B0B4
:101DE000BDE8F08F2DE9F04F83B09B461378CBB15F
:101DF000DDE90C9ADDF838800D4606464FEA5A07B1
:101E0000541E00BFB0B2DAB229465B46CDE9009A53
:101E1000CDF80880FFF72CFEA3783E44002B04F198
:101E20000104EFD103B0BDE8F08F000010B5044607
:101E3000000A00F005F8E0B2BDE81040AFF3008002
:101E400070B540F60005C4F2010505F5805406465C
:101E5000204610210022FEF745FB284620210022C3
:101E6000FEF740FBF20928468021FEF73BFB28469F
:101E700020210122FEF736FB284620210022FEF712
:101E800031FBC6F3801228468021FEF72BFB284643
:101E900020210122FEF726FB284620210022FEF702
:101EA00021FBC6F3401228468021FEF71BFB284683
:101EB00020210122FEF716FB284620210022FEF7F2
:101EC00011FBC6F3001228468021FEF70BFB2846C3
:101ED00020210122FEF706FB284620210022FEF7E2
:101EE00001FBC6F3C00228468021FEF7FBFA284614
:101EF00020210122FEF7F6FA284620210022FEF7D3
:101F0000F1FAC6F3800228468021FEF7EBFA284654
:101F100020210122FEF7E6FA284620210022FEF7C2
:101F2000E1FAC6F3400228468021FEF7DBFA284694
:101F300020210122FEF7D6FA284620210022FEF7B2
:101F4000D1FA06F0010228468021FEF7CBFA284696
:101F500020210122FEF7C6FA204610210122BDE809
:101F60007040FEF7BFBA0000F0B585B041F218002E
:101F7000C4F20200016841F6000441F04001016032
:101F80000168C4F2010401F0400101910199016866
:101F9000012241F0100101600168012601F01001E9
:101FA00001910199016841F00401016000683C2140
:101FB00000F00400019001982046FEF793FA2C20CF
:101FC000CDE90106022001AD0027049020462946F4
:101FD0000397FEF78DF9102001A9C1C103200490D9
:101FE00020462946FEF784F905B0F0BD80B540F2E1
:101FF000700042F60001C2F20000C4F200014FF08E
:10200000FF324FF4807380E80E00FEF761FF002876
:1020100008BF80BDBDE88040FEF750B980B540F2F2
:10202000840043F20001C2F20000C4F201014FF447
:102030008272002380E80E0000F114014FF4007C4E
:102040004FF0100E81E808500A21C0E90333C0E9BF
:102050000833C0E90A31FEF7D9FF002808BF80BD68
:10206000BDE88040FEF72AB970B590B040F2004557
:1020700040F2DC00C4F200050021C2F2000040F290
:102080002B124FF47A73CDE90811CDE90611CDE991
:102090000411C0E90052C0E9021301618161FFF738
:1020A000D5F9002818BFFEF709F940F2DC00C2F2AA
:1020B000000008A9FFF748F8002818BFFEF7FEF84F
:1020C00040F2DC046020C2F200040190002601A965
:1020D00020460422CDE902660596FFF781F8002824
:1020E00018BFFEF7EBF820680E96A84202D010B099
:1020F00070BD00BF41F21800C4F20200016841F057
:102100001001016000680CA900F010000B900B9802
:1021100080200C9002200D900F9041F20000C4F23C
:102120000100FEF7E5F80420C4F20100016841F067
:10213000E06141F44061016010B070BD80B540F2D3
:10214000241043F60001C2F20000C4F20101002392
:102150004FF00C0C4FF4E13280E80E00C0E903337D
:10216000C0E905C3C361FFF71DFA002808BF80BDA1
:10217000BDE88040FEF7A2B8FEE70000FEE70000E1
:102180007047000070470000FEF7B8B970470000C4
:10219000FEE700009CB06F20059046F268500024D6
:1021A000C6F66C4006940490FEF7B6F9092012902A
:1021B0004FF480300225CDE91304CDE919504FF4D6
:1021C000E01001211B9012A81794CDE91544CDE928
:1021D0000B44CDE9094416911891FEF779FC28B11A
:1021E000EFF3108072B600BFFEE700BF0F20CDE90D
:1021F0000D054FF48060CDE910040DA802210F9465
:10220000FEF730FB20B1EFF3108072B6FEE700BF9F
:102210004FF400700125089007A80795FEF7A0FA73
:1022200020B1EFF3108072B6FEE700BFFFF79CFE0F
:10223000FFF7DCFEFFF7F2FEFFF716FFFFF77EFF6A
:10224000FFF7B0FA1026002704AC00BF0A200A21CD
:1022500022464FF6FF73CDE900760295FFF7C2FDE7
:10226000F4E700000000000000000102030406077C
:102270000809000000000102030401020000000040
:10228000000000000000000000000404040404003A
:102290000004000014140A00000000000000000008
:1022A00000000A0A1F0A0A1F0A0A000000040E158D
:1022B00005060C14150E0400000012150D152E2C29
:1022C0002A1200000000040A0A361515291600001B
:1022D00002020100000000000000000010080804D5
:1022E000040404040808100002040408080808088C
:1022F0000404020000000004150E0E150400000086
:1023000000000008083E080800000000000000006F
:10231000000000000202010000000000003F000079
:1023200000000000000000000000000000020000AB
:1023300000201010080804040202010000000E1121
:1023400011111111110E0000000004060404040410
:10235000040E000000000E1111080402011F00000D
:1023600000000E11100C1010110E00000000080CDF
:102370000C0A091F081C000000001F01010F1110AA
:10238000110E000000000C12010D1311110E0000BF
:1023900000001E10080804040404000000000E11D0
:1023A000110E1111110E000000000E11111916105E
:1023B0000906000000000000040000000004000006
:1023C00000000000000400000004040000001008E9
:1023D0000402020408100000000000003F003F005B
:1023E00000000000000002040810100804020000B1
:1023F00000000E11110804040004000000001C225B
:10240000292D2D1D221C0000000004040C0A0A1EA8
:102410001233000000000F12120E1212120F0000F1
:1024200000001E1101010101110E000000000F1239
:1024300012121212120F000000001F120A0E0A02DE
:10244000121F000000001F120A0E0A0202070000FD
:1024500000001C1201013911120C0000000033129F
:10246000121E12121233000000001F0404040404A0
:10247000041F000000003E080808080808080907B3
:10248000000037120A060A12123700000000070285
:1024900002020202223F000000003B1B1B1B15151D
:1024A0001535000000003B1216161A1A121700000C
:1024B00000000E1111111111110E000000000F1279
:1024C000120E02020207000000000E111111111776
:1024D000190E180000000F12120E0A121237000017
:1024E00000001E1101060810110F000000001F154A
:1024F00004040404040E000000003312121212122D
:10250000120C000000003312120A0A0C040400002E
:102510000000151515150E0A0A0A000000001B0A16
:102520000A04040A0A1B000000001B0A0A0A040429
:10253000040E000000001F0908040402121F00001E
:102540001C0404040404040404041C000002020427
:1025500004040808081010000E08080808080808F5
:1025600008080E00040A000000000000000000003F
:1025700000000000000000000000003F0204000016
:10258000000000000000000000000000000C121C11
:10259000123C000000030202020E1212120E000092
:1025A00000000000001C1202120C000000181010A5
:1025B000101C1212123C000000000000000C121E41
:1025C000021C000000182404041E0404041E000061
:1025D00000000000003C120C021C221C000302023E
:1025E000020E121212370000000404000006040458
:1025F000040E000000080800000C0808080808077E
:1026000000030202021A0A060A130000000704046B
:1026100004040404041F000000000000000F15154E
:102620001515000000000000000F12121237000004
:1026300000000000000C1212120C0000000000004C
:10264000000F1212120E020700000000001C1212EE
:10265000121C103800000000001B060202070000D8
:1026600000000000001E020C101E0000000000040C
:10267000041E0404041C000000000000001B1212D1
:10268000123C000000000000001B0A0A04040000C5
:10269000000000000015150E0A0A000000000000EE
:1026A000001B0A040A1B0000000000000033121285
:1026B0000C08040300000000001E0804041E0000B3
:1026C00018080808080C080808081800080808086E
:1026D0000808080808080808060404040408040494
:1026E00004040600160900000000000000000000BD
:1026F00000000000000000000000000000000000DA
:102700000000000808080808080800001818000061
:1027100000486C24120000000000000000000000CF
:102720000000002424247F1212127F1212120000D3
:102730000000081C2A2A0A0C1828282A2A1C080823
:1027400000000022251515152A5854545422000063
:102750000000000C1212120A76252911916E000059
:102760000006060403000000000000000000000056
:102770000040201010080808080808101020400029
:1027800000020408081010101010100808040200BD
:102790000000000008086B1C1C6B0808000000000B
:1027A00000000000080808087F080808080000006A
:1027B0000000000000000000000000000606040306
:1027C0000000000000000000FE000000000000000B
:1027D00000000000000000000000000006060000ED
:1027E000000080404020201010080804040202006D
:1027F0000000001824424242424242422418000093
:10280000000000080E08080808080808083E000034
:102810000000003C4242422020100804427E00009A
:102820000000003C4242201820404042221C000090
:10283000000000203028242422227E20207800005E
:102840000000007E0202021A26404042221C0000C4
:10285000000000382402021A2642424224180000D6
:102860000000007E22221010080808080808000056
:102870000000003C4242422418244242423C0000F4
:10288000000000182442424264584040241C0000CA
:1028900000000000000018180000000018180000D8
:1028A000000000000000000800000000000808040C
:1028B000000000402010080402040810204000001E
:1028C0000000000000007F0000007F00000000000A
:1028D000000000020408102040201008040200003C
:1028E0000000003C42424640201010001818000032
:1028F0000000001C225A555555552D42221C00003F
:102900000000000808181414243C224242E700008A
:102910000000001F2222221E22424242221F0000EB
:102920000000007C4242010101010142221C000022
:102930000000001F2242424242424242221F000047
:102940000000003F4212121E12120242423F0000DB
:102950000000003F4212121E121202020207000083
:102960000000003C2222010101712122221C0000F2
:10297000000000E7424242427E42424242E70000FB
:102980000000003E0808080808080808083E000083
:102990000000007C10101010101010101010110FFB
:1029A0000000007722120A0E0A121222227700007B
:1029B000000000070202020202020202427F00003F
:1029C00000000077363636362A2A2A2A2A6B00007B
:1029D000000000E346464A4A5252526262470000F3
:1029E0000000001C2241414141414141221C0000A4
:1029F0000000003F424242423E0202020207000043
:102A00000000001C2241414141414D53321C6000F5
:102A10000000003F4242423E1212222242C7000002
:102A20000000007C4242020418204042423E000066
:102A30000000007F4908080808080808081C000072
:102A4000000000E74242424242424242423C000011
:102A5000000000E742422224241414180808000051
:102A60000000006B49494949555536222222000091
:102A7000000000E7422424181818242442E700002C
:102A8000000000772222141408080808081C00001F
:102A90000000007E2120101008040442423F000084
:102AA00000780808080808080808080808087800D6
:102AB00000000202040408080810102020204040F2
:102AC000001E1010101010101010101010101E000A
:102AD000003844000000000000000000000000007A
:102AE000000000000000000000000000000000FFE7
:102AF00000060800000000000000000000000000C8
:102B0000000000000000003C4278444242FC00000B
:102B1000000000030202021A26424242261A000066
:102B200000000000000000384402020244380000A7
:102B300000000060404040784442424264D80000B7
:102B4000000000000000003C427E0202423C000007
:102B5000000000F08808087E08080808083E000009
:102B6000000000000000007C22221C023C42423C8B
:102B7000000000030202023A4642424242E70000DD
:102B80000000000C0C00000E08080808083E0000B9
:102B90000000003030000038202020202020221E9D
:102BA0000000000302020272120A161222770000CD
:102BB0000000000E0808080808080808083E000081
:102BC000000000000000007F9292929292B70000F5
:102BD000000000000000003B4642424242E7000085
:102BE000000000000000003C42424242423C000023
:102BF000000000000000001B26424242221E020785
:102C0000000000000000007844424242447840E066
:102C100000000000000000774C040404041F0000C2
:102C2000000000000000007C42023C40423E0000E8
:102C3000000000000008083E0808080808300000EE
:102C400000000000000000634242424262DC0000DB
:102C500000000000000000E74224241408080000DF
:102C600000000000000000EB4949555522220000F9
:102C7000000000000000007624181818246E0000E0
:102C800000000000000000E7422424141808080790
:102C9000000000000000007E22100808447E0000B2
:102CA00000C0202020202010202020202020C00034
:102CB0001010101010101010101010101010101014
:102CC0000006080808080810080808080808060090
:102CD0000C32C200000000000000000000000000F4
:102CE00000000000000000000000000000000000E4
:102CF00000000000000000000000000000000000D4
:102D000000000000000000000000000000000000C3
:102D10000000000000000000600060006000600033
:102D200060006000600040002000200020000000E3
:102D30000000000060006000600000000000000073
:102D4000000000006006600630039801880044001F
:102D50000000000000000000000000000000000073
:102D60000000000000000000000000000000000063
:102D7000000000000000000010021002100210020B
:102D8000FE07FE0708020801080108010801FE0706
:102D9000FE0704010401040104010000000000001A
:102DA00000000000000040004000F00158034C0308
:102DB000CC034C0058007000E000C001C00140038B
:102DC0004C035C034C034801F0004000400000004D
:102DD00000000000000000000E010A0191009100B7
:102DE0009100510051003A00AE03A002500450047B
:102DF00048044804480484028403000000000000E2
:102E0000000000000000000038006C006C006C0046
:102E10006C006C002C0098071C011A01330133016F
:102E20006301E300C308C6093C070000000000007E
:102E3000000000000C001C0010001000080004003E
:102E40000000000000000000000000000000000082
:102E50000000000000000000000000000000000072
:102E6000000000000004000200018000800040001B
:102E70004000200020002000200020002000200032
:102E800040004000800080000001000200040000BB
:102E900000000000020004000800100010002000E4
:102EA0002000400040004000400040004000400042
:102EB00020002000100010000800040002000000A4
:102EC0000000000000000000000000004000C00002
:102ED0004000460C4E0FD001F0015E0F460C400042
:102EE0004000400000000000000000000000000062
:102EF0000000000000000000000000000000400092
:102F00004000400040004000FE0F400040004000F4
:102F10004000400000000000000000000000000031
:102F200000000000000000000000000000000000A1
:102F30000000000000000000000000000000000091
:102F4000000000000C001C0010001000080004002D
:102F50000000000000000000000000000000000071
:102F60000000000000000000FE070000000000005C
:102F70000000000000000000000000000000000051
:102F80000000000000000000000000000000000041
:102F90000000000000000000000000000000000031
:102FA000000000001C001C001C00000000000000CD
:102FB0000000000000040006000200030001000100
:102FC00080008000400040006000200020001000D1
:102FD0001000080008000C000400060002000000B9
:102FE00000000000000000000000F00098010C0349
:102FF0000C0306060606060606060606060606066E
:1030000006060C030C039801F0000000000000000D
:103010000000000000000000000040007C00600094
:1030200060006000600060006000600060006000A0
:103030006000600060006000FC0300000000000011
:1030400000000000000000000000F80084010203FE
:1030500006030603000300018001C0006000200099
:103060001000080204020602FE0300000000000037
:10307000000000000000000000007800C60086018B
:10308000860180018001C000700080010001000302
:103090000003060306038601F8000000000000009C
:1030A0000000000000000000000080018001C0015D
:1030B000A001A00190018801880184018201FE0F16
:1030C0008001800180018001E00700000000000015
:1030D00000000000000000000000FC0304000400E9
:1030E000040004000400F4008C0104030003000346
:1030F0000603060382018401F800000000000000BE
:1031000000000000000000000000E00118030C03B4
:103110000C0004000600E60116030E06060606066D
:10312000060604060C021803F00000000000000070
:1031300000000000000000000000F8070C06040278
:1031400004010001000180008000400040004000B8
:10315000600060006000600060000000000000008F
:1031600000000000000000000000F8010C0306064B
:10317000060606060C021C03F000C8010C03060636
:103180000606060606060C03F0010000000000001B
:1031900000000000000000000000F0000C010C0323
:1031A000060206060606060606078C0678060006D0
:1031B000000300030C018C017800000000000000F7
:1031C00000000000000000000000000000000000FF
:1031D00000000000E000E000E0000000000000004F
:1031E00000000000E000E000E0000000000000003F
:1031F00000000000000000000000000000000000CF
:1032000000000000600060000000000000000000FE
:10321000000000000000600060004000200020006E
:103220000000000000000000000400020001800017
:1032300040002000100008000400080010002000DA
:1032400040008000000100020004000000000000B7
:10325000000000000000000000000000000000006E
:1032600000000000FE07000000000000FE07000054
:10327000000000000000000000000000000000004E
:103280000000000000000000040008001000200002
:1032900040008000000100020004000200018000E4
:1032A00040002000100008000400000000000000A2
:1032B00000000000000000000000E0031806040CFD
:1032C000040C0C0C0C0C0007800140004000400076
:1032D00000000000E000E000E0000000000000004E
:1032E0000000000000000000E00018030C02CC0504
:1032F00064056605A605B604B604B604B604B602AF
:10330000E4010C040C021803F000000000000000AF
:10331000000000000000000000006000600050009D
:10332000D00090009000880088010801F801040393
:1033300004030402020202060F0F00000000000056
:1033400000000000000000000000FE008C030C03E1
:103350000C030C030C038C01FC000C030C020C0688
:103360000C060C060C060C03FE0100000000000019
:1033700000000000000000000000E00318030C063D
:103380000C04040406000600060006000600060001
:1033900006040C040C021803F000000000000000FA
:1033A000000000000000000000007F008C010C0302
:1033B0000C030C060C060C060C060C060C060C0680
:1033C0000C060C030C038C017F00000000000000C1
:1033D00000000000000000000000FF0306030604D8
:1033E0000604060086008600FE0086008600860031
:1033F0000600060406040602FF03000000000000A9
:1034000000000000000000000000FF0306030604A7
:103410000604060086008600FE0086008600860000
:1034200006000600060006001F0000000000000065
:1034300000000000000000000000F00018010C0275
:103440000C0204020600060006000600C60F060372
:1034500006030C030C031803F0000000000000003A
:10346000000000000000000000000F0F0606060626
:103470000606060606060606FE07060606060606F3
:1034800006060606060606060F0F000000000000EE
:1034900000000000000000000000FC03600060006D
:1034A000600060006000600060006000600060001C
:1034B0006000600060006000FC030000000000008D
:1034C00000000000000000000000F807C000C0007D
:1034D000C000C000C000C000C000C000C000C000EC
:1034E000C000C000C000C000C000C60066003C00B4
:1034F00000000000000000000000CF038601C600AD
:1035000046002600160036002E006E004600C6005B
:1035100086008601060106038F07000000000000F8
:10352000000000000000000000001F000600060070
:10353000060006000600060006000600060006005B
:103540000600060406040602FF0300000000000057
:10355000000000000000000000000707860386034B
:103560008E038E034E034E034A035A035A033A0353
:103570003203320332031203870700000000000009
:10358000000000000000000000008E0F0C021C0272
:103590001C0234023402640264024402C402840243
:1035A00084038403040304031F02000000000000DE
:1035B00000000000000000000000F00098010C0373
:1035C0000C02060606060606060606060606060699
:1035D00006060C020C039801F00000000000000039
:1035E00000000000000000000000FF0006030606C7
:1035F00006060606060606068603FE000600060008
:1036000006000600060006001F0000000000000083
:1036100000000000000000000000F00098010C0312
:103620000C02060606060606060606060606060638
:1036300076064C02CC039801F000800700030000DE
:1036400000000000000000000000FF010603060665
:103650000606060606060603FE004600C6008600AD
:1036600086010603060306060F0E00000000000098
:1036700000000000000000000000F8020C03060239
:10368000060206000E003C00F800E003800300077D
:103690000206020606060C03F0010000000000000E
:1036A00000000000000000000000FE076204610846
:1036B0006108600060006000600060006000600001
:1036C0006000600060006000F80100000000000081
:1036D000000000000000000000001E070C020C02A9
:1036E0000C020C020C020C020C020C020C020C026A
:1036F0000C020C020C021801F00000000000000097
:10370000000000000000000000000F070602040196
:1037100004010C010C0188008800980098005000FA
:103720005000700030002000200000000000000069
:1037300000000000000000000000F70E62044204D8
:103740004604460464026402E402E4029C029C0112
:10375000980198018801880088000000000000009E
:10376000000000000000000000009E070C0108019E
:1037700018019000B0006000200060006000D000E0
:1037800090008801080104038E070000000000007B
:10379000000000000000000000000F0F06040402FB
:1037A0000C0208011801B800B00070006000600051
:1037B0006000600060006000F80100000000000090
:1037C00000000000000000000000FC070C020603DF
:1037D0000201800180004000400020002000100015
:1037E000180008040C040402FE030000000000009E
:1037F00000000000E0032000200020002000200046
:1038000020002000200020002000200020002000B8
:10381000200020002000200020002000E003000005
:103820000000000000000000040004000800080080
:103830001000100010002000200040004000C000D8
:10384000800080000001000100020002000200046C
:10385000000000007C0040004000400040004000AC
:103860004000400040004000400040004000400058
:103870004000400040004000400040007C0000004C
:10388000000060009000080100000000000000003F
:103890000000000000000000000000000000000028
:1038A0000000000000000000000000000000000018
:1038B0000000000000000000000000000000000008
:1038C00000000000000000000000000000000000F8
:1038D0000000000000000000000000000000FF0FDA
:1038E0000000000018006000000000000000000060
:1038F00000000000000000000000000000000000C8
:1039000000000000000000000000000000000000B7
:1039100000000000000000000000000000000000A7
:1039200000000000F0010C030C030003E0031C0383
:103930000E03060306038E0B7C0E00000000000041
:10394000000000000000000008000E000C000C0049
:103950000C000C00CC013C031C060C060C060C06EB
:103960000C060C060C021C03E40100000000000021
:103970000000000000000000000000000000000047
:1039800000000000F0008C018C018601060006009A
:10399000060006020C020C01F0000000000000000E
:1039A00000000000000000000002C003000300034C
:1039B0000003000378038C030C03060306030603CD
:1039C0000603060304038C077801000000000000D2
:1039D00000000000000000000000000000000000E7
:1039E00000000000E001180308020C060C06FC07AA
:1039F0000C000C0018041802E00100000000000098
:103A000000000000000000000000C0036006300657
:103A100030003000FE013000300030003000300057
:103A20003000300030003000FC01000000000000D9
:103A30000000000000000000000000000000000086
:103A400000000000F007D8068C018C018C01980161
:103A5000F8000C00FC00CC03060306038E03F800FC
:103A6000000000000000000008000E000C000C0028
:103A70000C000C00EC011C030C030C030C030C03E6
:103A80000C030C030C030C039E0700000000000055
:103A90000000000000000000000060006000000066
:103AA000000040007C00600060006000600060007A
:103AB0006000600060006000FC0300000000000087
:103AC00000000000000000000000C001C001000074
:103AD00000000001F001800180018001800180016F
:103AE000800180018001800180018001CC007C0088
:103AF000000000000000000008000E000C000C0098
:103B00000C000C008C038C008C004C006C005C00E2
:103B10008C008C010C010C039E07000000000000CB
:103B2000000000000000000040007C006000600019
:103B30006000600060006000600060006000600085
:103B40006000600060006000FC03000000000000F6
:103B50000000000000000000000000000000000065
:103B6000000000003707EE06660666066606660673
:103B70006606660666066606FF0F00000000000087
:103B80000000000000000000000000000000000035
:103B900000000000EE011C030C030C030C030C03DB
:103BA0000C030C030C030C039E0700000000000034
:103BB0000000000000000000000000000000000005
:103BC00000000000F00098010C0306060606060639
:103BD000060606060C030C03F000000000000000BF
:103BE00000000000000000000000000000000000D5
:103BF00000000000EE011C030C060C060C060C066F
:103C00000C060C060C031C03EC010C000C003E001F
:103C100000000000000000000000000000000000A4
:103C20000000000078028C030C0306030603060361
:103C30000603060304038C03780300030003C00794
:103C40000000000000000000000000000000000074
:103C5000000000009F0358063806180018001800DE
:103C60001800180018001800FF00000000000000F5
:103C70000000000000000000000000000000000044
:103C800000000000F0031C030C020C023800F000DE
:103C9000C003040304038C03FC01000000000000C7
:103CA00000000000000000000000000020002000D4
:103CB00030003000FE0130003000300030003000B5
:103CC0003000300030023002E0010000000000004F
:103CD00000000000000000000000000000000000E4
:103CE000000008028E030C030C030C030C030C03EE
:103CF0000C030C030C039C0778010000000000007B
:103D000000000000000000000000000000000000B3
:103D1000000000001E070C020801080118019000B5
:103D2000B000B00060006000200000000000000053
:103D30000000000000000000000000000000000083
:103D400000000000F70E6204460464026402EC0204
:103D50009C019801980198010800000000000000F3
:103D60000000000000000000000000000000000053
:103D700000000000BC0718011001B00060006000E6
:103D8000E0009000080108039E070000000000000A
:103D90000000000000000000000000000000000023
:103DA000000000009E070801080108019000900033
:103DB000B0006000600060002000200024001C00B3
:103DC00000000000000000000000000000000000F3
:103DD00000000000FC018401C400440060002000D9
:103DE0003000180208020C03FC0100000000000073
:103DF0000000000000038000800080008000800040
:103E00008000800080004000200040008000800092
:103E1000800080008000800080008000000300009F
:103E20004000400040004000400040004000400092
:103E30004000400040004000400040004000400082
:103E40004000400040004000400040004000400072
:103E5000000000000C001000100010001000100006
:103E60001000100010002000400020001000100082
:103E70001000100010001000100010000C000000D6
:103E800000001C002204C2048003000000000000A7
:103E90000000000000000000000000000000000022
:103EA0000000000000000000000000000000000012
:103EB0000000000000000000000000000000000002
:103EC00000000000000000000000000000000000F2
:103ED00000000000000000000000000000000000E2
:103EE00000000000000000000000000000000000D2
:103EF00000000000000000000000C001C001C0017F
:103F0000C001C001C001C0018000800080008000AD
:103F100080008000800000000000000000008001A0
:103F2000C003C0038001000000000000000000008A
:103F3000000000000000E01CE01CF01E700E3807BE
:103F400018030801840000000000000000000000C9
:103F50000000000000000000000000000000000061
:103F60000000000000000000000000000000000051
:103F700000000000000000000000000020102010E1
:103F8000201020102010FE7FFE7F1008100810085F
:103F90001008100810081008FE7FFE7F08040804AF
:103FA00008040804080400000000000000000000ED
:103FB000000000000000000000010001C0076019BF
:103FC000103118311839183938017001E001C00377
:103FD0008007000F001D003900311C311C310C31ED
:103FE0000C11180DE00700010001000100000000A5
:103FF0000000000000000000000000001C10361847
:104000006308630C63046304630263026301361D87
:104010009C37802280634063406320632063306369
:1040200010221836081C00000000000000000000EC
:10403000000000000000000000000000F0009801F7
:104040008C018C018C018C018C00CC007800183E16
:104050001C083608320863046304C304C3038343A3
:1040600006438E26781C00000000000000000000BF
:104070000000000000001C003C003C00300030004C
:1040800010000C000600000000000000000000000E
:104090000000000000000000000000000000000020
:1040A0000000000000000000000000000000000010
:1040B0000000000000000040002000100008000C7C
:1040C000000400060003000300038001800180015A
:1040D0008001800180018001800100030003000352
:1040E00000060006000C0008001000200040000040
:1040F0000000000000000200040008001000300072
:1041000020006000C000C000C0008001800180016C
:1041100080018001800180018001C000C000C000DA
:104120006000600030001000080004000200000081
:10413000000000000000000000000000000000007F
:1041400000018003800300011C713C79783DC007A9
:104150000001C007783D3C791C7100018003800399
:1041600080010000000000000000000000000000CE
:10417000000000000000000000000000000000003F
:104180000000000100010001000100010001000128
:10419000FC7F00010001000100010001000100019D
:1041A000000000000000000000000000000000000F
:1041B00000000000000000000000000000000000FF
:1041C00000000000000000000000000000000000EF
:1041D00000000000000000000000000000000000DF
:1041E0001C003C003C003000300010000C000600B9
:1041F00000000000000000000000000000000000BF
:1042000000000000000000000000000000000000AE
:10421000FE7F000000000000000000000000000021
:10422000000000000000000000000000000000008E
:10423000000000000000000000000000000000007E
:10424000000000000000000000000000000000006E
:104250000000000000000000000000000000180046
:104260003C003C00180000000000000000000000BE
:10427000000000000000004000600020003000103E
:1042800000180008000C00040006000200030001F2
:1042900080018000C000400060002000300010005D
:1042A000180008000C0004000600020000000000D6
:1042B000000000000000000000000000C007600CCB
:1042C00030181830183018200C600C600C600C602E
:1042D0000C600C600C600C600C60182018301830FA
:1042E0003018600CC0070000000000000000000053
:1042F000000000000000000000000000000180013C
:10430000F80180018001800180018001800180012D
:104310008001800180018001800180018001800195
:104320008001C003F81F0000000000000000000032
:10433000000000000000000000000000E007101C6A
:104340000818043004300C300C300030001800081D
:1043500000040002000180004000202010200820FE
:104360000430FC1FFC1F00000000000000000000E3
:10437000000000000000000000000000E003180E34
:104380000C0C0C180C180C180018000C0006C003BC
:10439000000E00180010003000300C300C300C10F3
:1043A0000C18180CE00300000000000000000000E2
:1043B000000000000000000000000000000C000EE3
:1043C000000E000F800E800E400E600E200E100EAC
:1043D000100E080E040E040EFE7F000E000E000EDE
:1043E000000E000E000EC07F000000000000000064
:1043F000000000000000000000000000F03FF03F5F
:1044000010001000100008000800C807280C181839
:10441000081000300030003000300C300C30041830
:104420000418080CF0030000000000000000000069
:10443000000000000000000000000000800FC0101D
:10444000203010301800180008000C008C0F6C1879
:104450003C301C600C600C600C600C601860182014
:1044600030306018C00700000000000000000000AD
:10447000000000000000000000000000F83FF83FCE
:104480001C100C08040804040004000200020001CF
:1044900000010001800080008000C000C000C0005A
:1044A000C000C000C00000000000000000000000CC
:1044B000000000000000000000000000E007300CD9
:1044C00018180C300C300C301C3038187008E0070D
:1044D000B007180E0C1C06380630063006300630C1
:1044E0000C18180CE00300000000000000000000A1
:1044F000000000000000000000000000E0031804BD
:104500000C080C1806100630063006300630063847
:104510000C3C1836F03100300018001800180C0C54
:104520000C060C03F0010000000000000000000079
:10453000000000000000000000000000000000007B
:10454000000000000000000000008001C003C00364
:104550008001000000000000000000000000800159
:10456000C003C00380010000000000000000000044
:10457000000000000000000000000000000000003B
:1045800000000000000000000000C000C0000000AB
:10459000000000000000000000000000000000001B
:1045A0000000C000C000800080004000400000000B
:1045B00000000000000000000000002000100008C3
:1045C0000004000600038001C000600030001800F5
:1045D0000C00180030006000C000800100030006DD
:1045E000000400080010002000000000000000008F
:1045F00000000000000000000000000000000000BB
:1046000000000000000000000000FE7F000000002D
:10461000000000000000FE7F00000000000000001D
:10462000000000000000000000000000000000008A
:10463000000000000000000000000400080010005E
:1046400020006000C000800100030006000C00187C
:1046500000300018000C000600038001C00060005C
:10466000200010000800040000000000000000000E
:1046700000000000000000000000C00730180830F3
:1046800008600C601C601C601C600030001C000690
:104690000001800080008000800000000000800198
:1046A000C003C00380010000000000000000000003
:1046B000000000000000000000000000C0076018BB
:1046C000103018200C2F8C4D864CC64CC64C664CB6
:1046D00066446644662666266615CC1C0C40082097
:1046E00018303018C0070000000000000000000073
:1046F000000000000000000000000001C001C00137
:10470000C00140016003200320032003300610068F
:1047100010061006F80F080C080C080C0C0C0418F6
:10472000041806181F7C00000000000000000000B4
:10473000000000000000000000000000FE07181C40
:10474000183818301830183018301818180CF807A6
:104750001818183018201860186018601860186051
:1047600018301818FE0F00000000000000000000C4
:10477000000000000000000000000000C0276038BA
:10478000103018200C400C40040006000600060003
:10479000060006000600060006000C400C400C2037
:1047A00018303018C00700000000000000000000B2
:1047B000000000000000000000000000FE03180ED2
:1047C0001818183018301830186018601860186001
:1047D00018601860186018601860183018301810C9
:1047E0001818180EFE030000000000000000000072
:1047F000000000000000000000000000FE3F183034
:10480000182018601840180018081808180CF80F1D
:10481000180C18081808180018001800184018403C
:1048200018201830FE3F00000000000000000000CB
:10483000000000000000000000000000FE7F187073
:10484000184018C018801800181018101818F81FF1
:104850001818181018101800180018001800180060
:10486000180018007E00000000000000000000009A
:10487000000000000000000000000000C013701CD9
:10488000101018100C200C20040006000600060072
:104890000600060006FC063006300C300C301830DE
:1048A00018303008C00700000000000000000000C1
:1048B0000000000000000000000000003F7E0C1817
:1048C0000C180C180C180C180C180C180C180C18C8
:1048D000FC1F0C180C180C180C180C180C180C18C1
:1048E0000C180C183F7E00000000000000000000C3
:1048F000000000000000000000000000F81F800120
:10490000800180018001800180018001800180019F
:10491000800180018001800180018001800180018F
:1049200080018001F81F000000000000000000006E
:10493000000000000000000000000000E07F000612
:104940000006000600060006000600060006000637
:104950000006000600060006000600060006000627
:1049600000060006000600060E060E038E01FC007F
:104970000000000000000000000000007E7C18180D
:104980001808180418061802180198019801D8018F
:10499000B803380318071806180E180C181C181836
:1049A000183018307EFC00000000000000000000FD
:1049B0000000000000000000000000007E00180061
:1049C0001800180018001800180018001800180027
:1049D0001800180018001800180018001840184097
:1049E00018201830FE3F000000000000000000000A
:1049F0000000000000000000000000001FF81C384C
:104A00001C381C381C3C343434343434343674325E
:104A10006432643264326431C431C431C431C4306C
:104A2000C43084309FFC0000000000000000000043
:104A30000000000000000000000000001F7C1C10AF
:104A40003C103410341074106410E410C410C411FD
:104A500084118413041304170416041E041C041C7C
:104A6000041C04181F1800000000000000000000D3
:104A7000000000000000000000000000C003300C37
:104A8000181808100C300C300660066006600660CE
:104A9000066006600660066006600C200C30081098
:104AA0001818300CC00300000000000000000000D7
:104AB000000000000000000000000000FE0F1818B9
:104AC00018301860186018601860186018301818CE
:104AD000F80F180018001800180018001800180027
:104AE000180018007E000000000000000000000018
:104AF000000000000000000000000000C003300CB7
:104B000018180C100C300C20066006600660066059
:104B100006600660066006600660E4612C331C32A5
:104B20001816300EC007004C007C00380000000052
:104B3000000000000000000000000000FE07181C3C
:104B4000183818301830183018301818180CF807A2
:104B500098031803180718061806180E180C180CD6
:104B6000181C18187E7800000000000000000000EB
:104B7000000000000000000000000000E0273038C6
:104B800018300C200C200C000C0018007800E003FA
:104B9000800F001E00380070006004600460086030
:104BA00018303818C80F0000000000000000000096
:104BB000000000000000000000000000FC3F8C210D
:104BC00084618241824180018001800180018001F5
:104BD00080018001800180018001800180018001CD
:104BE00080018001E00700000000000000000000DC
:104BF0000000000000000000000000003F7C0C10DE
:104C00000C100C100C100C100C100C100C100C10C4
:104C10000C100C100C100C100C100C100C100C10B4
:104C200008083804E0030000000000000000000055
:104C30000000000000000000000000003EF8182006
:104C40001820182030103010301030106008600824
:104C50006008E00CC004C004C0048003800380032B
:104C600080030001000100000000000000000000BF
:104C7000000000000000000000000000DFF386617B
:104C8000862186218C210C218C238C138C138C1370
:104C90004C1358125816580E380E380E380E300C69
:104CA00010041004100400000000000000000000C8
:104CB0000000000000000000000000007E3E180818
:104CC00038083004300470026002E001C001C00105
:104CD000800180034003400720062006100C100CC2
:104CE000081808183E7C00000000000000000000CA
:104CF0000000000000000000000000007E7C1C108E
:104D0000181018083008300C700460046002C002EB
:104D1000C002C0018001800180018001800180010A
:104D200080018001E007000000000000000000009A
:104D3000000000000000000000000000F83F18180C
:104D40000818040C040E000600070003800380010D
:104D5000C001C000E0006000700030003820182062
:104D60001C100C18FE1F00000000000000000000D6
:104D7000000000000000C03F400040004000400034
:104D80004000400040004000400040004000400023
:104D90004000400040004000400040004000400013
:104DA00040004000400040004000C03F00000000C4
:104DB00000000000000000000000080018001800BB
:104DC000100030002000600060004000C000800043
:104DD00080018001000100030002000600060004BB
:104DE000000C00080018001800100030002000001F
:104DF000000000000000FC030002000200020002AC
:104E00000002000200020002000200020002000292
:104E10000002000200020002000200020002000282
:104E200000020002000200020002FC030000000079
:104E30000000000000008007C006200810100000DD
:104E40000000000000000000000000000000000062
:104E50000000000000000000000000000000000052
:104E60000000000000000000000000000000000042
:104E70000000000000000000000000000000000032
:104E80000000000000000000000000000000000022
:104E90000000000000000000000000000000000012
:104EA0000000000000000000000000000000FFFF04
:104EB0000000000000007800C000000100000000B9
:104EC00000000000000000000000000000000000E2
:104ED00000000000000000000000000000000000D2
:104EE00000000000000000000000000000000000C2
:104EF00000000000000000000000000000000000B2
:104F000000000000000000000000F00318060C0C78
:104F10000C0C000C800F700C1C0C0C0C060C060CFE
:104F2000064C0C4FF83800000000000000000000A4
:104F30000000000000000000000010001E0018002B
:104F400018001800180018001800180FD81838306A
:104F500038601860186018601860186018601820B1
:104F600038307818C807000000000000000000007A
:104F70000000000000000000000000000000000031
:104F800000000000000000000000C007700C1818AE
:104F900018180C180C000C000C000C000C20182029
:104FA00018103008C00700000000000000000000DA
:104FB000000000000000000000000010001E0018AB
:104FC00000180018001800180018E01B301C1818F2
:104FD00018180C180C180C180C180C180C180818A9
:104FE000181C307AE00900000000000000000000FA
:104FF00000000000000000000000000000000000B1
:1050000000000000000000000000C007300C18186D
:1050100008100C300C30FC3F0C000C000C00182069
:1050200018107018C0070000000000000000000009
:10503000000000000000000000000000003E80C3EF
:1050400080C0C0C0C000C000C000FC1FC000C000C5
:10505000C000C000C000C000C000C000C000C00050
:10506000C000C000F80F00000000000000000000B9
:105070000000000000000000000000000000000030
:1050800000000000000000000000C077306C101825
:105090001818181818181018300CF00718001800F5
:1050A000F00FF03F08700C600C600C603838E00FB7
:1050B0000000000000000000000010001E001800AA
:1050C00018001800180018001800980FD818383069
:1050D0001830183018301830183018301830183090
:1050E000183018307EFC00000000000000000000B6
:1050F00000000000000000000000000080038003AA
:1051000080030000000000000001F8018001800120
:105110008001800180018001800180018001800187
:1051200080018001F81F0000000000000000000066
:1051300000000000000000000000000000380038FF
:1051400000380000000000000010801F0018001848
:10515000001800180018001800180018001800188F
:1051600000180018001800180018180C1806F00392
:105170000000000000000000000010001E001800E9
:1051800018001800180018001800183E180C18060F
:10519000180318019801D801380318071806180CCD
:1051A000181C18187E7C00000000000000000000A1
:1051B000000000000000000000000001F801800174
:1051C00080018001800180018001800180018001D7
:1051D00080018001800180018001800180018001C7
:1051E00080018001F81F00000000000000000000A6
:1051F00000000000000000000000000000000000AF
:1052000000000000000000000800EE1C9C338C3100
:105210008C318C318C318C318C318C318C318C31A6
:105220008C318C31DE7B00000000000000000000AB
:10523000000000000000000000000000000000006E
:10524000000000000000000010001E0FD8183830C9
:10525000183018301830183018301830183018300E
:10526000183018307EFC0000000000000000000034
:10527000000000000000000000000000000000002E
:1052800000000000000000000000C007701C10308B
:1052900018300C600C600C600C600C600C601830F6
:1052A00018303018C00700000000000000000000A7
:1052B00000000000000000000000000000000000EE
:1052C000000000000000000010009E0F5818383049
:1052D000182018601860186018601860186018307E
:1052E00038307818980718001800180018007E0049
:1052F00000000000000000000000000000000000AE
:1053000000000000000000000000C023303C1838FE
:1053100018300C300C300C300C300C300C300830A5
:105320001838303CE033003000300030003000FCF2
:10533000000000000000000000000000000000006D
:10534000000000000000000060007E3C60666061BC
:10535000E000E0006000600060006000600060004D
:1053600060006000FE070000000000000000000078
:10537000000000000000000000000000000000002D
:1053800000000000000000000000E0273038183066
:10539000182018007000E003800F001C0430043057
:1053A0000C301C18EC0F0000000000000000000092
:1053B00000000000000000000000000000000000ED
:1053C000800080008000C000E000FC1FC000C00022
:1053D000C000C000C000C000C000C000C000C020AD
:1053E000C0208011000F000000000000000000003D
:1053F00000000000000000000000000000000000AD
:10540000000000000000000010201E3C1830183082
:10541000183018301830183018301830183018304C
:10542000183830F4E0130000000000000000000015
:10543000000000000000000000000000000000006C
:10544000000000000000000000007E3C1818180852
:10545000380830043004700260026002E001C001CC
:10546000C001C0008000000000000000000000003B
:10547000000000000000000000000000000000002C
:1054800000000000000000000000DFF78E630C2326
:105490008C238C239813981358165816700E700E80
:1054A000700E200420040000000000000000000036
:1054B00000000000000000000000000000000000EC
:1054C00000000000000000000000FC3E70087004B6
:1054D000E004C002C0018003800340076006200C86
:1054E000100C18183E7E00000000000000000000B4
:1054F00000000000000000000000000000000000AC
:10550000000000000000000000007E7C1818180851
:1055100030083008300460046004C002C002C002D9
:105520008001800180018000800080004C003C00F0
:10553000000000000000000000000000000000006B
:1055400000000000000000000000FC1F0C0C040E16
:105550000406000380038001C000E00070203020BA
:1055600038301C18FC1F0000000000000000000084
:1055700000000000000000300008000400040004E7
:1055800000040004000400040004000400040002FD
:105590008001000200040004000400040004000470
:1055A00000040004000400040004000800300000AF
:1055B00000010001000100010001000100010001E3
:1055C00000010001000100010001000100010001D3
:1055D00000010001000100010001000100010001C3
:1055E00000010001000100010001000100010001B3
:1055F0000000000000000C0010002000200020002F
:10560000200020002000200020002000200040007A
:105610008001400020002000200020002000200009
:105620002000200020002000200010000C000000BE
:1056300000003800C400864002610022001C000007
:10564000000000000000000000000000000000005A
:10565000000000000000000000000000000000004A
:10566000000000000000000000000000000000003A
:1056700002030405060708090A0B0C0D0E0F101093
:10568000A05600080000002010000000940100084F
:10569000B05600081000002060070000B4010008A8
:1056A00001000000100000000024F40000000000D1
:0400000508000131BD
:00000001FF
